:020000040000fa
:080000000002040000000000f2
:020000040000fa
:04000800fe020000f4
:020000040000fa
:04000c00fe020000f0
:020000040000fa
:04001000fe020000ec
:020000040000fa
:04001400fe020000e8
:020000040000fa
:04001800fe020000e4
:020000040000fa
:04001c00fe020000e0
:020000040000fa
:04002000fe020000dc
:020000040000fa
:04002400fe020000d8
:020000040000fa
:04002800fe020000d4
:020000040000fa
:04002c00fe020000d0
:020000040000fa
:04003000fe020000cc
:020000040000fa
:04003400c8020000fe
:020000040000fa
:04003800fe020000c4
:020000040000fa
:04003c00fe020000c0
:020000040000fa
:04004000da020000e0
:020000040000fa
:04004400fe020000b8
:020000040000fa
:04004800fe020000b4
:020000040000fa
:04004c00fe020000b0
:020000040000fa
:04005000fe020000ac
:020000040000fa
:04005400fe020000a8
:020000040000fa
:04005800fe020000a4
:020000040000fa
:04005c00fe020000a0
:020000040000fa
:04006000fe0200009c
:020000040000fa
:04006400fe02000098
:020000040000fa
:04006800fe02000094
:020000040000fa
:04006c00fe02000090
:020000040000fa
:04007000fe0200008c
:020000040000fa
:04007400fe02000088
:020000040000fa
:04007800fe02000084
:020000040000fa
:04007c00fe02000080
:020000040000fa
:04008000fe0200007c
:020000040000fa
:04008400fe02000078
:020000040000fa
:04008800fe02000074
:020000040000fa
:04008c00ec02000082
:020000040000fa
:04009000fe0200006c
:020000040000fa
:04009400fe02000068
:020000040000fa
:04009800fe02000064
:020000040000fa
:04009c00fe02000060
:020000040000fa
:0400a000fe0200005c
:020000040000fa
:0400a400fe02000058
:020000040000fa
:0400a800fe02000054
:020000040000fa
:0400ac00fe02000050
:020000040000fa
:0400b000fe0200004c
:020000040000fa
:0400b400fe02000048
:020000040000fa
:0400b800fe02000044
:020000040000fa
:0400bc00fe02000040
:020000040000fa
:0400c000fe0200003c
:020000040000fa
:0400c400fe02000038
:020000040000fa
:0400c800fe02000034
:020000040000fa
:0400cc00fe02000030
:020000040000fa
:0400d000fe0200002c
:020000040000fa
:0400d400fe02000028
:020000040000fa
:0400d800fe02000024
:020000040000fa
:0400dc00fe02000020
:020000040000fa
:0400e000fe0200001c
:020000040000fa
:0400e400fe02000018
:020000040000fa
:0400e800fe02000014
:020000040000fa
:0400ec00fe02000010
:020000040000fa
:0400f000fe0200000c
:020000040000fa
:0400f400fe02000008
:020000040000fa
:0400f800fe02000004
:020000040000fa
:0400fc00fe02000000
:020000040000fa
:04010000fe020000fb
:020000040000fa
:04010400fe020000f7
:020000040000fa
:04010800fe020000f3
:020000040000fa
:04010c00fe020000ef
:020000040000fa
:04011000fe020000eb
:020000040000fa
:04011400fe020000e7
:020000040000fa
:04011800fe020000e3
:020000040000fa
:04011c00fe020000df
:020000040000fa
:04012000fe020000db
:020000040000fa
:04012400fe020000d7
:020000040000fa
:04012800fe020000d3
:020000040000fa
:04012c00fe020000cf
:020000040000fa
:04013000fe020000cb
:020000040000fa
:04013400fe020000c7
:020000040000fa
:04013800fe020000c3
:020000040000fa
:04013c00fe020000bf
:020000040000fa
:04014000fe020000bb
:020000040000fa
:04014400fe020000b7
:020000040000fa
:04014800fe020000b3
:020000040000fa
:04014c00fe020000af
:020000040000fa
:04015000fe020000ab
:020000040000fa
:04015400fe020000a7
:020000040000fa
:04015800fe020000a3
:020000040000fa
:04015c00fe0200009f
:020000040000fa
:04016000fe0200009b
:020000040000fa
:04016400fe02000097
:020000040000fa
:04016800fe02000093
:020000040000fa
:04020800fe020000f2
:020000040000fa
:04020c00fe020000ee
:020000040000fa
:04021000fe020000ea
:020000040000fa
:04021400fe020000e6
:020000040000fa
:04021800fe020000e2
:020000040000fa
:04021c00fe020000de
:020000040000fa
:04022000fe020000da
:020000040000fa
:04022400fe020000d6
:020000040000fa
:04022800fe020000d2
:020000040000fa
:04022c00fe020000ce
:020000040000fa
:04023000fe020000ca
:020000040000fa
:04023400c8020000fc
:020000040000fa
:04023800fe020000c2
:020000040000fa
:04023c00fe020000be
:020000040000fa
:04024000da020000de
:020000040000fa
:04024400fe020000b6
:020000040000fa
:04024800fe020000b2
:020000040000fa
:04024c00fe020000ae
:020000040000fa
:04025000fe020000aa
:020000040000fa
:04025400fe020000a6
:020000040000fa
:04025800fe020000a2
:020000040000fa
:04025c00fe0200009e
:020000040000fa
:04026000fe0200009a
:020000040000fa
:04026400fe02000096
:020000040000fa
:04026800fe02000092
:020000040000fa
:04026c00fe0200008e
:020000040000fa
:04027000fe0200008a
:020000040000fa
:04027400fe02000086
:020000040000fa
:04027800fe02000082
:020000040000fa
:04027c00fe0200007e
:020000040000fa
:04028000fe0200007a
:020000040000fa
:04028400fe02000076
:020000040000fa
:04028800fe02000072
:020000040000fa
:04028c00ec02000080
:020000040000fa
:04029000fe0200006a
:020000040000fa
:04029400fe02000066
:020000040000fa
:04029800fe02000062
:020000040000fa
:04029c00fe0200005e
:020000040000fa
:0402a000fe0200005a
:020000040000fa
:0402a400fe02000056
:020000040000fa
:0402a800fe02000052
:020000040000fa
:0402ac00fe0200004e
:020000040000fa
:0402b000fe0200004a
:020000040000fa
:0402b400fe02000046
:020000040000fa
:0402b800fe02000042
:020000040000fa
:0402bc00fe0200003e
:020000040000fa
:0402c000fe0200003a
:020000040000fa
:0402c400fe02000036
:020000040000fa
:0402c800fe02000032
:020000040000fa
:0402cc00fe0200002e
:020000040000fa
:0402d000fe0200002a
:020000040000fa
:0402d400fe02000026
:020000040000fa
:0402d800fe02000022
:020000040000fa
:0402dc00fe0200001e
:020000040000fa
:0402e000fe0200001a
:020000040000fa
:0402e400fe02000016
:020000040000fa
:0402e800fe02000012
:020000040000fa
:0402ec00fe0200000e
:020000040000fa
:0402f000fe0200000a
:020000040000fa
:0402f400fe02000006
:020000040000fa
:0402f800fe02000002
:020000040000fa
:0402fc00fe020000fe
:020000040000fa
:04030000fe020000f9
:020000040000fa
:04030400fe020000f5
:020000040000fa
:04030800fe020000f1
:020000040000fa
:04030c00fe020000ed
:020000040000fa
:04031000fe020000e9
:020000040000fa
:04031400fe020000e5
:020000040000fa
:04031800fe020000e1
:020000040000fa
:04031c00fe020000dd
:020000040000fa
:04032000fe020000d9
:020000040000fa
:04032400fe020000d5
:020000040000fa
:04032800fe020000d1
:020000040000fa
:04032c00fe020000cd
:020000040000fa
:04033000fe020000c9
:020000040000fa
:04033400fe020000c5
:020000040000fa
:04033800fe020000c1
:020000040000fa
:04033c00fe020000bd
:020000040000fa
:04034000fe020000b9
:020000040000fa
:04034400fe020000b5
:020000040000fa
:04034800fe020000b1
:020000040000fa
:04034c00fe020000ad
:020000040000fa
:04035000fe020000a9
:020000040000fa
:04035400fe020000a5
:020000040000fa
:04035800fe020000a1
:020000040000fa
:04035c00fe0200009d
:020000040000fa
:04036000fe02000099
:020000040000fa
:04036400fe02000095
:020000040000fa
:04036800fe02000091
:020000040000fa
:100400008f8220000eff20000e01880000000000f7
:10041000000020000000e000020032000001200087
:100420002002880014000700760007000000e000aa
:1004300003003a00809e20000100200002003700e7
:100440000000200001002000810f70000100320038
:1004500014000700000020000000e000020032004d
:1004600000000200000000005e0302000000000027
:100470000040da000000fe004440a9000000200017
:100480000000e0000300320000002000a00188000e
:100490004440a800000006008a1f78008b1f7800e7
:1004a0000000060091018800800478000000eb0045
:1004b0001a003700e284440032a0b4009905ba0063
:1004c000e284440032a0b4009906ba00e2844400f9
:1004d00032a0b4000006eb00476fde00fd07b2005b
:1004e000636ce10003003a00ebff07000000eb0043
:1004f0000a003700606ce10004003a00005deb0088
:100500008b05e900fdff3e00040037006168e10053
:10051000010032000086eb000b00070019c7ba008b
:100520001905ba000e04e00003003a000a00e000da
:10053000e0ff3a0000000600fe07b2009e018800be
:100540008a047800f5ff3700395dba008b05e900b1
:100550000c003200295dba008b05e900080032006a
:100560000c00e00003003a00e284440032a0b40032
:10057000f5ff370019ddba008b05e900faff3a00f4
:100580008904e800e184440032a0b40000000600c1
:10059000801f78000000fa008460a90020418000dc
:1005a0000000e800204188000080fa004f00780039
:1005b00000400600801f78000000fa0084c0a900f7
:1005c000004180000000e800004188000080fa003f
:1005d0004f00780000400600801f78000000fa00fd
:1005e0008720a900104180000000e8001041880029
:1005f0000080fa004f007800004006000040da005a
:080600000000fe0000000500ef
:020000040000fa
:100608000000fa0041e3a9004143a800011a800054
:10061800f0cf2f0000806000001a8800011a8000c7
:10062800f0f02f00808060000007200001007000bb
:10063800001a88004043a800111a8000f0ff230028
:1006480000806000101a880043a3a9004363a80033
:100658004343a800111a800030f82f000080600082
:10066800c001b300101a88004203a90045e3a9009d
:10067800211a8000f00f2e0000806000201a8800e8
:10068800f0c3b30044e3b7005003a8005023a80008
:100698005083a80051a3a80051c3a8005143a80043
:1006a8005163a8005183a80041e3a8000080fa0024
:1006b800000006000000fa00213a8000f08f2f00a9
:1006c80000806000203a8800100020000040880068
:1006d80040002000104088002000200020408800b2
:1006e8000628ef000828ef0010002000504088007e
:1006f80010002000604088001028ef001228ef004a
:1007080010002000a04088001628ef00c002a800b2
:10071800c022a800c802a900c822a900c842a8008f
:10072800c042a800c062a800c8e2a900c902a90086
:10073800c922a900c0c2a900c982a800c9a2a800ec
:10074800c9c2a800c9e2a80060c02100800c8800c6
:10075800f0012000900c880060c02100d00c8800b7
:10076800f0012000e00c880060c02100200d880006
:10077800f0012000300d8800a1ff070005e1a80066
:100788000421a90021088000f0fc2f0000806000ef
:100798000050a0002008880040c3200010088800ee
:1007a80011e1a8001021a90081088000f0fc2f00a9
:1007b800008060000050a0008008880040c320002e
:1007c8006008880021058000f0ff28008080600014
:1007d8000000260001007000200588008460a90040
:1007e8009460a90031058000f08f2f000080600020
:1007f80000a0a0003005880084c0a90094c0a8000b
:1008080081058000f0f82f00008060000060a000e3
:10081800800588008720a9009720a90000e8230008
:10082800d040880000e82300e04088001e68ef0000
:100838001f68ef00c201070040012000cb0107003c
:1008480000408000e40f500090003200e40f500098
:1008580009003e00e10f500021003200e10f500076
:100868000e003900e20f500086003200e30f5000fe
:100878008500320050013700e60f5000d4003200e6
:10088800e60f5000d1003900e70f5000d1003200c8
:10089800e80f5000df00320047013700c003200096
:1008a800b20107002a020700c0032000af010700b9
:1008b800e5010700c0032000ac010700cc010700d8
:1008c800c0032000a901070021020700c00320007f
:1008d800a60107004038200033020700ffff370059
:1008e800b101070010408000e20f500010003200f4
:1008f800e20f500005003e000000e0000800320052
:10090800e10f50000800320048003700e30f5000a4
:100918001c003200e40f5000300032004300370062
:100928003702070043003700620207004100370022
:100938008301070020408000e10f500007003200cb
:10094800e10f500003003900e20f500006003200aa
:10095800080037000228ef000900370030002000a7
:100968001040880006003700400020001040880032
:100978000300370020002000204088002d003700a9
:100988002c0037006e01070020408000e10f500066
:1009980008003200e10f500003003900e20f500058
:1009a800070032000900370030002000104088009e
:1009b80009003700100020001040880006003700aa
:1009c800400020001040880003003700200020006d
:1009d800204088001700370016003700580107002c
:1009e80020408000e10f500008003200e10f500065
:1009f80003003900e20f50000700320007003700fb
:100a08002000200010408800070037003000200038
:100a18001040880004003700030037002000200041
:100a28002040880003003700020037004000200003
:100a3800104088004118800040512000808f5000ed
:100a48000f003e00e118800040512000808f5000c8
:100a58000b003e00c1188000007d2000808f5000f0
:100a68000700360026c8bf000004e00004003a0072
:100a7800400020000040880040062000ca0107000e
:100a8800d0003700cf003700ce003700604080002c
:100a9800e10f50001e003200e10f50000300390042
:100aa800e20f50002e0032004500370040012000c0
:100ab8002e010700d118800030382000808f5000a8
:100ac8000500360010002000604088001f68ef0015
:100ad8001e68ef000700370041188000c05d200045
:100ae800808f500002003e005701070001003700c8
:100af8003f010700c1188000803e2000808f500011
:100b080002003e0020002000604088002e003700d0
:100b180000f42100d040880000f42100e040880063
:100b2800d118800040382000808f500003003e001c
:100b38000c28ef000201070008003700c1188000e8
:100b4800803e2000808f500003003e0020002000df
:100b58006040880001003700a90007001a0037002c
:100b68004001200001010700e118800080572000a3
:100b7800808f500006003e00400620008a010700d2
:100b88001b01070080022000f8000700050037005d
:100b980040062000840107002b0107008002200086
:100ba800f20007002668ef001000200000408800cf
:100bb8000228ef000628ef002028ef000200370087
:100bc80010002000604088007e0037007d0037005c
:100bd8007c003700a04080000000e00003003200e5
:100be800e10f5000050032000800370094c0a9004a
:100bf8009460a900740007000500370094c0a9009c
:100c08009460a900ce000700ffff37001428ef000a
:100c18006c003700b0408000e20f50002d00320019
:100c2800e20f500005003e000000e0000a0032001c
:100c3800e10f5000140032005c003700e40f500050
:100c480049003200e40f500033003900e50f50002e
:100c58005400320055003700204180000000e000b9
:100c6800080032002428ef002028ef000621ef00ba
:100c780094c0a8009460a90010002000b04088002b
:100c8800f10007004b00370001418000502220008e
:100c9800808f50000e00360020002000b0408800f1
:100ca8002428ef002028ef000621ef0094c0a900b7
:100cb8009460a800007d2000d0408800007d2000be
:100cc800e04088001e68ef001f68ef004c00070036
:100cd80038003700204180000000e0000d0032009d
:100ce8002428ef002028ef000621ef0094c0a80078
:100cf8009460a90030002000b04088001a28ef0056
:100d0800007d2000e04088001e68ef001f68ef00ab
:100d18003b0007002700370001418000b044200055
:100d2800808f50000f0036002428ef002028ef00a5
:100d38000621ef0094c0a9008460a9009460a8006f
:100d480040002000b0408800007d2000d04088008e
:100d5800007d2000e04088001e68ef001f68ef005b
:100d68002700070013003700204180000000e00042
:100d78000b00320050002000b04088002428ef000b
:100d88002028ef001a28ef001c28ef001e68ef004b
:100d98001f68ef009460a90094c0a90068000700cc
:100da800040037006600070002003700100020002a
:100db800b040880003003700100020000040880081
:100dc8009ffe37009efe37000000fa004006200014
:100dd800d040880040062000e04088001ec8bf00c0
:100de8000004a2001ee8b7001ec8bf000004a2004d
:100df8001fe8b700020007000080fa0000000600a4
:100e08000000fa001ec8bf00614060000080fb00bf
:100e1800610060004900dd00611680000190a100ba
:100e280001007000601688001fc8bf0061406000a4
:100e38000080fb00610060004800dd006116800052
:100e48000180a100010070006016880020032000c6
:100e5800000d880020032000500d88002e00370068
:100e6800f10c8000d0408000808f500004003100d9
:100e7800f00c8000803eb000f00c880007003700be
:100e8800f10c8000d0408000808f500003003600b5
:100e9800f00c8000803eb100f00c8800410d80000d
:100ea800e0408000808f500004003100400d800039
:100eb800803eb000400d880007003700410d8000db
:100ec800e0408000808f500003003600400d800015
:100ed800803eb100400d8800f10c8000d0408000b9
:100ee80080805000703e2000808f500002003e003d
:100ef800d0408000f00c8800410d8000e040800068
:100f080080805000703e2000808f500002003e001c
:100f1800e0408000400d8800f10c8000d040800047
:100f2800808f5000ceff3a00410d8000e0408000e5
:100f3800808f5000caff3a000080fa0000000600c7
:100f48000000fa00c0fd2f00000d8800c0fd2f0032
:100f5800500d8800c0fd2f00f00c8800c0fd2f0048
:100f6800400d88000080fa00000006000200fa0028
:100f7800000f7800f2ff070094c0a9008460a90060
:100f88002428ef009460a8000621ef00000000006c
:100f98009e00780020418000808f5000fcff3e00ba
:100fa8000080fa00000006000000fa00c118800066
:100fb800007d2000808f500002003e000428ef00d2
:100fc80009003700c1188000f0f92000808f500018
:100fd800030036002000200020408800020037006f
:100fe80010002000204088000080fa000000060061
:100ff8000000fa00d2ff07009460a90084c0a9008d
:1010080094c0a80000772100d04088000077210014
:10101800e04088001e68ef0010c0b3001fe8b7006a
:101028002028ef0076ff0700000000000141800043
:1010380090112000808f5000fcff3600c0ff070091
:101048000080fa00000006000000fa00bcff07005c
:101058009460a90084c0a90094c0a800007721006a
:10106800d040880000772100e040880010c0b3001d
:101078001ee8b7001f68ef002028ef0060ff070098
:10108800000000000141800090112000808f500076
:10109800fcff3600aaff07000080fa0000000600e7
:1010a8000000fa00a6ff07009460a90084c0a90008
:1010b80094c0a80000772100d04088000077210064
:1010c800e04088001e68ef0010c0b3001fe8b700ba
:1010d8002028ef004aff07000000000001418000bf
:1010e80020082000808f5000fcff360094ff070086
:1010f8000080fa00000006000000fa0090ff0700d8
:101108009460a90084c0a90094c0a80000772100b9
:10111800d040880000772100e040880010c0b3006c
:101128001ee8b7001f68ef002028ef0034ff070013
:10113800000000000141800020082000808f50003e
:10114800fcff36007eff07000080fa000000060062
:101158000000fa007aff07009460a90084c0a90083
:1011680094c0a80000772100d040880000772100b3
:10117800e040880010c0b3001ee8b7001f68ef0009
:101188002028ef001eff070000000000014180003a
:1011980060212000808f5000fcff360068ff0700a8
:1011a8000080fa00000006000200fa00000f780034
:1011b80063ff07009460a90084c0a90094c0a80038
:1011c80000fa2000d040880000fa2000e0408800a3
:1011d8001e68ef001f68ef002028ef0008ff0700d7
:1011e800000000009e00780000418000808f5000c1
:1011f800fcff3e0052ff07000080fa0000000600d6
:101208000000fa0020408000e10f50001d0032006d
:10121800e10f500003003900e20f50001d003200ba
:1012280020003700304080000000e000030032005a
:10123800e10f5000080032000f00370000ee2200d6
:10124800d040880000fa2000e04088001e68ef00c7
:101258001f68ef000900370000f42100d040880023
:1012680000e82300e040880010c0b3001ee8b70083
:101278001f68ef00010037000628ef00e0fe0700b6
:101288000a00370030002000104088002cff0700bb
:1012980006003700400020001040880028ff0700a3
:1012a8000200370020002000204088000080fa005b
:1012b800000006000000fa0020408000e10f500006
:1012c80009003200e10f500003003900e20f50001e
:1012d8001c0032001f00370020002000104088004a
:1012e80017ff07001d003700304080000000e000b5
:1012f80003003200e10f5000080032000e003700f2
:1013080000fa2000d040880000ee2200e04088006b
:101318001e68ef001f68ef000800370000f4210086
:10132800d040880000d02700e04088001e68ef0009
:101338001f68ef00010037000628ef00b0fe070025
:10134800060037004000200010408800fcfe07001f
:101358000200370020002000204088000080fa00aa
:10136800000006000000fa00c1188000007d20007f
:10137800808f500003003e0030002000704088003d
:101388000f003700d1188000f0f92000808f50003e
:10139800020036000e28ef0009003700e11880002f
:1013a800f0f92000808f5000030036001000200064
:1013b800704088000200370020002000704088003c
:0813c8000080fa00000006009d
:020000040000fa
:1013d00000080000280000000000000000000000dd
:020000040000fa
:0200000401f009
:04000c00ffff0000f2
:020000040000fa
:0200000401f009
:04001000fbff0000f2
:00000001FF
