:020000040000fa
:080000000002040000000000f2
:020000040000fa
:04000800ee02000004
:020000040000fa
:04000c00ee02000000
:020000040000fa
:04001000ee020000fc
:020000040000fa
:04001400ee020000f8
:020000040000fa
:04001800ee020000f4
:020000040000fa
:04001c00ee020000f0
:020000040000fa
:04002000ee020000ec
:020000040000fa
:04002400ee020000e8
:020000040000fa
:04002800ee020000e4
:020000040000fa
:04002c00ee020000e0
:020000040000fa
:04003000ee020000dc
:020000040000fa
:04003400c8020000fe
:020000040000fa
:04003800ee020000d4
:020000040000fa
:04003c00ee020000d0
:020000040000fa
:04004000dc020000de
:020000040000fa
:04004400ee020000c8
:020000040000fa
:04004800ee020000c4
:020000040000fa
:04004c00ee020000c0
:020000040000fa
:04005000ee020000bc
:020000040000fa
:04005400ee020000b8
:020000040000fa
:04005800ee020000b4
:020000040000fa
:04005c00ee020000b0
:020000040000fa
:04006000ee020000ac
:020000040000fa
:04006400ee020000a8
:020000040000fa
:04006800ee020000a4
:020000040000fa
:04006c00ee020000a0
:020000040000fa
:04007000ee0200009c
:020000040000fa
:04007400ee02000098
:020000040000fa
:04007800ee02000094
:020000040000fa
:04007c00ee02000090
:020000040000fa
:04008000ee0200008c
:020000040000fa
:04008400ee02000088
:020000040000fa
:04008800ee02000084
:020000040000fa
:04008c00ee02000080
:020000040000fa
:04009000ee0200007c
:020000040000fa
:04009400ee02000078
:020000040000fa
:04009800ee02000074
:020000040000fa
:04009c00ee02000070
:020000040000fa
:0400a000ee0200006c
:020000040000fa
:0400a400ee02000068
:020000040000fa
:0400a800ee02000064
:020000040000fa
:0400ac00ee02000060
:020000040000fa
:0400b000ee0200005c
:020000040000fa
:0400b400ee02000058
:020000040000fa
:0400b800ee02000054
:020000040000fa
:0400bc00ee02000050
:020000040000fa
:0400c000ee0200004c
:020000040000fa
:0400c400ee02000048
:020000040000fa
:0400c800ee02000044
:020000040000fa
:0400cc00ee02000040
:020000040000fa
:0400d000ee0200003c
:020000040000fa
:0400d400ee02000038
:020000040000fa
:0400d800ee02000034
:020000040000fa
:0400dc00ee02000030
:020000040000fa
:0400e000ee0200002c
:020000040000fa
:0400e400ee02000028
:020000040000fa
:0400e800ee02000024
:020000040000fa
:0400ec00ee02000020
:020000040000fa
:0400f000ee0200001c
:020000040000fa
:0400f400ee02000018
:020000040000fa
:0400f800ee02000014
:020000040000fa
:0400fc00ee02000010
:020000040000fa
:04010000ee0200000b
:020000040000fa
:04010400ee02000007
:020000040000fa
:04010800ee02000003
:020000040000fa
:04010c00ee020000ff
:020000040000fa
:04011000ee020000fb
:020000040000fa
:04011400ee020000f7
:020000040000fa
:04011800ee020000f3
:020000040000fa
:04011c00ee020000ef
:020000040000fa
:04012000ee020000eb
:020000040000fa
:04012400ee020000e7
:020000040000fa
:04012800ee020000e3
:020000040000fa
:04012c00ee020000df
:020000040000fa
:04013000ee020000db
:020000040000fa
:04013400ee020000d7
:020000040000fa
:04013800ee020000d3
:020000040000fa
:04013c00ee020000cf
:020000040000fa
:04014000ee020000cb
:020000040000fa
:04014400ee020000c7
:020000040000fa
:04014800ee020000c3
:020000040000fa
:04014c00ee020000bf
:020000040000fa
:04015000ee020000bb
:020000040000fa
:04015400ee020000b7
:020000040000fa
:04015800ee020000b3
:020000040000fa
:04015c00ee020000af
:020000040000fa
:04016000ee020000ab
:020000040000fa
:04016400ee020000a7
:020000040000fa
:04016800ee020000a3
:020000040000fa
:04020800ee02000002
:020000040000fa
:04020c00ee020000fe
:020000040000fa
:04021000ee020000fa
:020000040000fa
:04021400ee020000f6
:020000040000fa
:04021800ee020000f2
:020000040000fa
:04021c00ee020000ee
:020000040000fa
:04022000ee020000ea
:020000040000fa
:04022400ee020000e6
:020000040000fa
:04022800ee020000e2
:020000040000fa
:04022c00ee020000de
:020000040000fa
:04023000ee020000da
:020000040000fa
:04023400c8020000fc
:020000040000fa
:04023800ee020000d2
:020000040000fa
:04023c00ee020000ce
:020000040000fa
:04024000dc020000dc
:020000040000fa
:04024400ee020000c6
:020000040000fa
:04024800ee020000c2
:020000040000fa
:04024c00ee020000be
:020000040000fa
:04025000ee020000ba
:020000040000fa
:04025400ee020000b6
:020000040000fa
:04025800ee020000b2
:020000040000fa
:04025c00ee020000ae
:020000040000fa
:04026000ee020000aa
:020000040000fa
:04026400ee020000a6
:020000040000fa
:04026800ee020000a2
:020000040000fa
:04026c00ee0200009e
:020000040000fa
:04027000ee0200009a
:020000040000fa
:04027400ee02000096
:020000040000fa
:04027800ee02000092
:020000040000fa
:04027c00ee0200008e
:020000040000fa
:04028000ee0200008a
:020000040000fa
:04028400ee02000086
:020000040000fa
:04028800ee02000082
:020000040000fa
:04028c00ee0200007e
:020000040000fa
:04029000ee0200007a
:020000040000fa
:04029400ee02000076
:020000040000fa
:04029800ee02000072
:020000040000fa
:04029c00ee0200006e
:020000040000fa
:0402a000ee0200006a
:020000040000fa
:0402a400ee02000066
:020000040000fa
:0402a800ee02000062
:020000040000fa
:0402ac00ee0200005e
:020000040000fa
:0402b000ee0200005a
:020000040000fa
:0402b400ee02000056
:020000040000fa
:0402b800ee02000052
:020000040000fa
:0402bc00ee0200004e
:020000040000fa
:0402c000ee0200004a
:020000040000fa
:0402c400ee02000046
:020000040000fa
:0402c800ee02000042
:020000040000fa
:0402cc00ee0200003e
:020000040000fa
:0402d000ee0200003a
:020000040000fa
:0402d400ee02000036
:020000040000fa
:0402d800ee02000032
:020000040000fa
:0402dc00ee0200002e
:020000040000fa
:0402e000ee0200002a
:020000040000fa
:0402e400ee02000026
:020000040000fa
:0402e800ee02000022
:020000040000fa
:0402ec00ee0200001e
:020000040000fa
:0402f000ee0200001a
:020000040000fa
:0402f400ee02000016
:020000040000fa
:0402f800ee02000012
:020000040000fa
:0402fc00ee0200000e
:020000040000fa
:04030000ee02000009
:020000040000fa
:04030400ee02000005
:020000040000fa
:04030800ee02000001
:020000040000fa
:04030c00ee020000fd
:020000040000fa
:04031000ee020000f9
:020000040000fa
:04031400ee020000f5
:020000040000fa
:04031800ee020000f1
:020000040000fa
:04031c00ee020000ed
:020000040000fa
:04032000ee020000e9
:020000040000fa
:04032400ee020000e5
:020000040000fa
:04032800ee020000e1
:020000040000fa
:04032c00ee020000dd
:020000040000fa
:04033000ee020000d9
:020000040000fa
:04033400ee020000d5
:020000040000fa
:04033800ee020000d1
:020000040000fa
:04033c00ee020000cd
:020000040000fa
:04034000ee020000c9
:020000040000fa
:04034400ee020000c5
:020000040000fa
:04034800ee020000c1
:020000040000fa
:04034c00ee020000bd
:020000040000fa
:04035000ee020000b9
:020000040000fa
:04035400ee020000b5
:020000040000fa
:04035800ee020000b1
:020000040000fa
:04035c00ee020000ad
:020000040000fa
:04036000ee020000a9
:020000040000fa
:04036400ee020000a5
:020000040000fa
:04036800ee020000a1
:020000040000fa
:10040000ef8120000eff20000e0188000000000098
:10041000000020000000e000020032000001200087
:1004200020028800140007006e0007000000e000b2
:1004300003003a00e05120000100200002003700d4
:100440000000200001002000810f70000100320038
:1004500014000700000020000000e000020032004d
:100460000000020000000000f40202000000000092
:100470000040da000000fe004440a9000000200017
:100480000000e0000300320000002000a00188000e
:100490004440a800000006008a1f78008b1f7800e7
:1004a0000000060091018800800478000000eb0045
:1004b0001a003700e284440032a0b4009905ba0063
:1004c000e284440032a0b4009906ba00e2844400f9
:1004d00032a0b4000006eb00476fde00fd07b2005b
:1004e000636ce10003003a00ebff07000000eb0043
:1004f0000a003700606ce10004003a00005deb0088
:100500008b05e900fdff3e00040037006168e10053
:10051000010032000086eb000b00070019c7ba008b
:100520001905ba000e04e00003003a000a00e000da
:10053000e0ff3a0000000600fe07b2009e018800be
:100540008a047800f5ff3700395dba008b05e900b1
:100550000c003200295dba008b05e900080032006a
:100560000c00e00003003a00e284440032a0b40032
:10057000f5ff370019ddba008b05e900faff3a00f4
:100580008904e800e184440032a0b40000000600c1
:10059000801f78000000fa008460a9009460a90020
:1005a00094c0a80010002000e04088000080fa00fd
:1005b0004f00780000400600801f78000000fa001d
:1005c00084c0a900d04080000000e800d04088002e
:1005d0000080fa004f007800004006000040da007a
:0805e0000000fe000000050010
:020000040000fa
:1005e8000000fa00213a8000f08f2f0000806000a0
:1005f800203a8800e024ef00e224ef00c022a9009e
:10060800c842a90060c02100d00c8800f001200079
:10061800e00c880060c02100800c8800f0012000f8
:10062800900c880005e1a8000421a9002108800099
:1006380000032000010070002008880050e8210015
:100648001008880021058000f0ff280080806000e5
:100658000000260001007000200588008460a900c1
:100668009460a80031058000f08f2f0000806000a2
:1006780000a0a0003005880084c0a90094c0a9008b
:10068800007d2000f00c880040062000000d880046
:10069800007d2000a00c880040062000b00c8800d7
:1006a80070002000004088001028ef000040800003
:1006b800e30f500029003200e30f500005003e0010
:1006c800e10f500023003200e10f500022003e00ed
:1006d80009003700e50f500022003200e50f5000f6
:1006e8001f003900e60f50001f003200e70f5000ce
:1006f800290032009a003700104080000000e00016
:1007080003003200e10f5000080032000e003700ed
:10071800007d2000a04088001628ef001868ef0030
:100728001968ef009f000700090037001428ef0040
:10073800007d2000b04088001868ef001968ef00bd
:1007480098000700020037001000200010408800c1
:1007580085003700840037008300370082003700a7
:100768008100370080003700704080000000e00002
:1007780003003200e10f500003003200040037008c
:100788007a00070003003700a300070001003700c4
:100798000e28ef007400370080408000e20f500000
:1007a80030003200e20f500005003e000000e0007b
:1007b8000a003200e10f50001800320065003700cf
:1007c800e40f50004a003200e40f500035003900b1
:1007d800e50f5000550032005e003700007d200014
:1007e800a0408800007d2000b04088001868ef0015
:1007f8001968ef006b000700e0408000e10f50002f
:1008080005003a001c28ef001a28ef000021ef002d
:100818001000200080408800500037001428ef00a6
:10082800007d2000b04088001868ef001968ef00cc
:100838005c000700d140800050222000808f5000cb
:100848000700360020002000804088001c28ef00a8
:100858001a28ef000021ef0094c0a9009460a800b6
:100868003e003700007d2000a0408800007d200069
:10087800b04088001868ef001968ef0049000700c9
:10088800e04080000000e000050032001c28ef0076
:100898001a28ef000021ef00300020008040880077
:1008a8002e0037001428ef00007d2000b04088009b
:1008b8001868ef001968ef003a000700d14080007f
:1008c800b0442000808f5000080036001c28ef003c
:1008d8001a28ef000021ef0094c0a9008460a90045
:1008e8009460a80040002000804088001b0037006a
:1008f800007d2000a0408800007d2000b0408800d6
:100908001868ef001968ef0026000700e040800033
:10091800e10f500004003a00500020008040880099
:100928001c28ef001a28ef000c0037001428ef00ed
:100938001628ef001868ef001968ef001c28ef0070
:100948001a28ef009460a90094c0a900320007009b
:1009580002003700100020008040880002003700a5
:100968000028ef0051ff370050ff37000000fa0061
:1009780040062000a040880040062000b0408800c3
:1009880018c8bf000004a20018e8b70018c8bf00c4
:100998000004a20019e8b700020007000080fa006e
:1009a800000006000000fa0018c8bf00614060009f
:1009b8000080fb00610060004200dd0061168000dd
:1009c8000120a100010070006016880019c8bf004e
:1009d800614060000080fb00610060000000400092
:1009e800211680000110a100010070002016880067
:1009f800a0408000a00c8800b0408000f00c880067
:100a080020032000000d880020032000b00c88007f
:100a18000080fa00000006000000fa00a0408000f4
:100a2800000d8800b0408000b00c88000080fa00fb
:040a380000000600b4
:020000040000fa
:100a3c00000800001e000000000000000000000084
:020000040000fa
:0200000401f009
:04000c00ffff0000f2
:00000001FF
