:020000040000fa
:080000000002040000000000f2
:020000040000fa
:0400080002030000ef
:020000040000fa
:04000c0002030000eb
:020000040000fa
:0400100002030000e7
:020000040000fa
:0400140002030000e3
:020000040000fa
:0400180002030000df
:020000040000fa
:04001c0002030000db
:020000040000fa
:0400200002030000d7
:020000040000fa
:0400240002030000d3
:020000040000fa
:0400280002030000cf
:020000040000fa
:04002c0002030000cb
:020000040000fa
:0400300002030000c7
:020000040000fa
:04003400cc020000fa
:020000040000fa
:0400380002030000bf
:020000040000fa
:04003c0002030000bb
:020000040000fa
:04004000de020000dc
:020000040000fa
:0400440002030000b3
:020000040000fa
:0400480002030000af
:020000040000fa
:04004c0002030000ab
:020000040000fa
:0400500002030000a7
:020000040000fa
:0400540002030000a3
:020000040000fa
:04005800020300009f
:020000040000fa
:04005c00020300009b
:020000040000fa
:040060000203000097
:020000040000fa
:040064000203000093
:020000040000fa
:04006800020300008f
:020000040000fa
:04006c00020300008b
:020000040000fa
:040070000203000087
:020000040000fa
:040074000203000083
:020000040000fa
:04007800020300007f
:020000040000fa
:04007c00020300007b
:020000040000fa
:040080000203000077
:020000040000fa
:040084000203000073
:020000040000fa
:04008800020300006f
:020000040000fa
:04008c00f00200007e
:020000040000fa
:040090000203000067
:020000040000fa
:040094000203000063
:020000040000fa
:04009800020300005f
:020000040000fa
:04009c00020300005b
:020000040000fa
:0400a0000203000057
:020000040000fa
:0400a4000203000053
:020000040000fa
:0400a800020300004f
:020000040000fa
:0400ac00020300004b
:020000040000fa
:0400b0000203000047
:020000040000fa
:0400b4000203000043
:020000040000fa
:0400b800020300003f
:020000040000fa
:0400bc00020300003b
:020000040000fa
:0400c0000203000037
:020000040000fa
:0400c4000203000033
:020000040000fa
:0400c800020300002f
:020000040000fa
:0400cc00020300002b
:020000040000fa
:0400d0000203000027
:020000040000fa
:0400d4000203000023
:020000040000fa
:0400d800020300001f
:020000040000fa
:0400dc00020300001b
:020000040000fa
:0400e0000203000017
:020000040000fa
:0400e4000203000013
:020000040000fa
:0400e800020300000f
:020000040000fa
:0400ec00020300000b
:020000040000fa
:0400f0000203000007
:020000040000fa
:0400f4000203000003
:020000040000fa
:0400f80002030000ff
:020000040000fa
:0400fc0002030000fb
:020000040000fa
:0401000002030000f6
:020000040000fa
:0401040002030000f2
:020000040000fa
:0401080002030000ee
:020000040000fa
:04010c0002030000ea
:020000040000fa
:0401100002030000e6
:020000040000fa
:0401140002030000e2
:020000040000fa
:0401180002030000de
:020000040000fa
:04011c0002030000da
:020000040000fa
:0401200002030000d6
:020000040000fa
:0401240002030000d2
:020000040000fa
:0401280002030000ce
:020000040000fa
:04012c0002030000ca
:020000040000fa
:0401300002030000c6
:020000040000fa
:0401340002030000c2
:020000040000fa
:0401380002030000be
:020000040000fa
:04013c0002030000ba
:020000040000fa
:0401400002030000b6
:020000040000fa
:0401440002030000b2
:020000040000fa
:0401480002030000ae
:020000040000fa
:04014c0002030000aa
:020000040000fa
:0401500002030000a6
:020000040000fa
:0401540002030000a2
:020000040000fa
:04015800020300009e
:020000040000fa
:04015c00020300009a
:020000040000fa
:040160000203000096
:020000040000fa
:040164000203000092
:020000040000fa
:04016800020300008e
:020000040000fa
:0402080002030000ed
:020000040000fa
:04020c0002030000e9
:020000040000fa
:0402100002030000e5
:020000040000fa
:0402140002030000e1
:020000040000fa
:0402180002030000dd
:020000040000fa
:04021c0002030000d9
:020000040000fa
:0402200002030000d5
:020000040000fa
:0402240002030000d1
:020000040000fa
:0402280002030000cd
:020000040000fa
:04022c0002030000c9
:020000040000fa
:0402300002030000c5
:020000040000fa
:04023400cc020000f8
:020000040000fa
:0402380002030000bd
:020000040000fa
:04023c0002030000b9
:020000040000fa
:04024000de020000da
:020000040000fa
:0402440002030000b1
:020000040000fa
:0402480002030000ad
:020000040000fa
:04024c0002030000a9
:020000040000fa
:0402500002030000a5
:020000040000fa
:0402540002030000a1
:020000040000fa
:04025800020300009d
:020000040000fa
:04025c000203000099
:020000040000fa
:040260000203000095
:020000040000fa
:040264000203000091
:020000040000fa
:04026800020300008d
:020000040000fa
:04026c000203000089
:020000040000fa
:040270000203000085
:020000040000fa
:040274000203000081
:020000040000fa
:04027800020300007d
:020000040000fa
:04027c000203000079
:020000040000fa
:040280000203000075
:020000040000fa
:040284000203000071
:020000040000fa
:04028800020300006d
:020000040000fa
:04028c00f00200007c
:020000040000fa
:040290000203000065
:020000040000fa
:040294000203000061
:020000040000fa
:04029800020300005d
:020000040000fa
:04029c000203000059
:020000040000fa
:0402a0000203000055
:020000040000fa
:0402a4000203000051
:020000040000fa
:0402a800020300004d
:020000040000fa
:0402ac000203000049
:020000040000fa
:0402b0000203000045
:020000040000fa
:0402b4000203000041
:020000040000fa
:0402b800020300003d
:020000040000fa
:0402bc000203000039
:020000040000fa
:0402c0000203000035
:020000040000fa
:0402c4000203000031
:020000040000fa
:0402c800020300002d
:020000040000fa
:0402cc000203000029
:020000040000fa
:0402d0000203000025
:020000040000fa
:0402d4000203000021
:020000040000fa
:0402d800020300001d
:020000040000fa
:0402dc000203000019
:020000040000fa
:0402e0000203000015
:020000040000fa
:0402e4000203000011
:020000040000fa
:0402e800020300000d
:020000040000fa
:0402ec000203000009
:020000040000fa
:0402f0000203000005
:020000040000fa
:0402f4000203000001
:020000040000fa
:0402f80002030000fd
:020000040000fa
:0402fc0002030000f9
:020000040000fa
:0403000002030000f4
:020000040000fa
:0403040002030000f0
:020000040000fa
:0403080002030000ec
:020000040000fa
:04030c0002030000e8
:020000040000fa
:0403100002030000e4
:020000040000fa
:0403140002030000e0
:020000040000fa
:0403180002030000dc
:020000040000fa
:04031c0002030000d8
:020000040000fa
:0403200002030000d4
:020000040000fa
:0403240002030000d0
:020000040000fa
:0403280002030000cc
:020000040000fa
:04032c0002030000c8
:020000040000fa
:0403300002030000c4
:020000040000fa
:0403340002030000c0
:020000040000fa
:0403380002030000bc
:020000040000fa
:04033c0002030000b8
:020000040000fa
:0403400002030000b4
:020000040000fa
:0403440002030000b0
:020000040000fa
:0403480002030000ac
:020000040000fa
:04034c0002030000a8
:020000040000fa
:0403500002030000a4
:020000040000fa
:0403540002030000a0
:020000040000fa
:04035800020300009c
:020000040000fa
:04035c000203000098
:020000040000fa
:040360000203000094
:020000040000fa
:040364000203000090
:020000040000fa
:04036800020300008c
:020000040000fa
:100400004f8220000eff20000e0188000000000037
:10041000000020000000e000020032000001200087
:100420002002880014000700780007000000e000a8
:1004300003003a0060c420000100200002003700e1
:100440000000200001002000810f70000100320038
:1004500014000700000020000000e000020032004d
:100460000000020000000000620302000000000023
:100470000040da000000fe004440a9000000200017
:100480000000e0000300320000002000a00188000e
:100490004440a800000006008a1f78008b1f7800e7
:1004a0000000060091018800800478000000eb0045
:1004b0001a003700e284440032a0b4009905ba0063
:1004c000e284440032a0b4009906ba00e2844400f9
:1004d00032a0b4000006eb00476fde00fd07b2005b
:1004e000636ce10003003a00ebff07000000eb0043
:1004f0000a003700606ce10004003a00005deb0088
:100500008b05e900fdff3e00040037006168e10053
:10051000010032000086eb000b00070019c7ba008b
:100520001905ba000e04e00003003a000a00e000da
:10053000e0ff3a0000000600fe07b2009e018800be
:100540008a047800f5ff3700395dba008b05e900b1
:100550000c003200295dba008b05e900080032006a
:100560000c00e00003003a00e284440032a0b40032
:10057000f5ff370019ddba008b05e900faff3a00f4
:100580008904e800e184440032a0b40000000600c1
:100590000000000000000000801f78000000fa004a
:1005a0008460a900004180000000e800004188004c
:1005b0000080fa004f00780000400600801f78009d
:1005c0000000fa0084c0a900e04080000000e800bc
:1005d000e04088000080fa004f00780000400600ec
:1005e000801f78000000fa008720a900f0408000fa
:1005f0000000e800f04088000080fa004f0078001a
:10060000004006000040da000000fe000000050087
:020000040000fa
:100610000000fa0041e3a9004143a800011a80004c
:10062000f0cf2f0000806000001a8800011a8000bf
:10063000f0f02f00808060000007200001007000b3
:10064000001a88004043a800111a8000f0ff230020
:1006500000806000101a880043a3a9004363a8002b
:100660004343a800111a800030f82f00008060007a
:10067000c001b300101a88004203a90045e3a90095
:10068000211a8000f00f2e0000806000201a8800e0
:10069000f0c3b30044e3b7005003a8005023a80000
:1006a0005083a80051a3a80051c3a8005143a8003b
:1006b0005163a8005183a80041e3a8000080fa001c
:1006c000000006000000fa00213a8000f08f2f00a1
:1006d00000806000203a8800100020000040880060
:1006e000500020001040880030002000204088008a
:1006f0000628ef0010002000404088000c28ef0082
:100700000e28ef0010002000804088001228ef0023
:10071000c002a800c022a800c802a900c822a900df
:10072000c842a800c042a800c062a800c8e2a90050
:10073000c902a900c922a900c0c2a900c982a80093
:10074000c9a2a800c9c2a800c9e2a80060c02000d0
:10075000800c8800f0012000900c8800204e2000c2
:10076000a00c880000052000b00c880060c02100ab
:10077000d00c8800f0012000e00c880060c021004f
:10078000200d8800f0012000300d8800a0ff070038
:1007900005e1a8000421a90021088000f0fc2f0039
:1007a000008060000050a0002008880040c32000a6
:1007b0001008880011e1a8001021a900810880001c
:1007c000f0fc2f00008060000050a000800888002e
:1007d00040c320006008880021e1a8002021a90072
:1007e00001098000f0fc2f00008060000050a00094
:1007f00000098800104e2000e008880021058000d4
:10080000f0ff2800808060000000260001007000da
:10081000200588008460a9009460a900310580004b
:10082000f08f2f000080600000a0a000300588003d
:1008300084c0a90094c0a80081058000f0f82f00b2
:10084000008060000060a000800588008720a9006b
:100850009720a90000e82300b040880000e82300aa
:10086000c04088001a68ef001b68ef0072020700a2
:10087000400120007b02070000408000e40f500090
:10088000fe003200e40f500009003e00e10f50006e
:1008900018003200e10f50000e003900e20f500046
:1008a000b8003200e30f5000c800320000023700e9
:1008b000e60f50006c013200e60f50004c01390089
:1008c000e70f500081013200e80f50008f01320025
:1008d000f70137004001200062020700d50307003e
:1008e0001000200000408800a00020005d020700ea
:1008f000f20137006c02070010408000e20f500048
:1009000012003200e20f500005003e000000e0003f
:100910000a003200e10f50000a0032007800370070
:10092000e40f500042003200e40f5000260039006e
:10093000e50f500059003200710037002403070012
:1009400071003700540307006f003700204080001b
:10095000e10f50000a003200e10f5000050039009d
:10096000e20f500009003200e30f50000f00320088
:1009700011003700300020001040880011003700bf
:1009800040002000104088000e00370000fa2000d0
:10099000b040880000fa2000c04088001a68ef00cc
:1009a0001b68ef00d401070006003700500020004c
:1009b00010408800030037003000200020408800ed
:1009c00051003700500037001b0207002040800014
:1009d000e10f500009003200e10f5000050039001e
:1009e000e20f500008003200e30f5000090032000f
:1009f0000b0037000228ef000c00370040002000f9
:100a000010408800090037002000200010408800b6
:100a10000600370050002000104088000300370017
:100a200030002000204088003700370036003700b3
:100a30000102070020408000e10f50000a00320050
:100a4000e10f500005003900e20f500009003200ac
:100a5000e30f50000a0032000c0037004000200075
:100a6000104088000c003700100020001040880063
:100a700009003700200020001040880006003700e1
:100a80005000200010408800030037003000200094
:100a9000204088001c0037001b003700e6010700db
:100aa00020408000e10f50000a003200e10f5000aa
:100ab00005003900e20f500009003200e30f50003a
:100ac0000a0032000a003700300020001040880081
:100ad0000a0037004000200010408800070037005f
:100ae0002000200010408800040037000300370079
:100af000300020002040880003003700020037004b
:100b0000500020001040880041188000803e2000e6
:100b1000808f500011003e00a0002000d10107008e
:100b2000e1188000803e2000808f500003003e00ce
:100b300040002000004088000800370014c8bf00b3
:100b40000004e00003003200300020000040880074
:100b500002003700c01220006f02070014c8bf0057
:100b60000004e00006003a00111880003038200030
:100b7000808f5000020036002000200000408800d6
:100b80004e01370050002000b6010700df010700ca
:100b900050002000b3010700401f20005e02070044
:100ba00040012000af0107000f030700c012200022
:100bb0005902070010c0b30014e8b700100020006d
:100bc0000040880040012000a6010700b118800005
:100bd000007d2000808f500014003e004006200061
:100be0004d020700500020009e010700dd010700b4
:100bf000500020009b010700800c200046020700e7
:100c0000f0020700800c200059020700500020006d
:100c100094010700bd010700c01220003e0207003a
:100c2000100020000040880013003700a00f2000b3
:100c300039020700500020008a010700b3010700b5
:100c40005000200087010700800c200032020700be
:100c5000dc020700800c2000450207005000200045
:100c600080010700bf010700c01220002a02070010
:100c70001000200000408800100137004040800034
:100c8000e10f50001e003200e10f50000300390058
:100c9000e20f50003a0032005200370040012000bd
:100ca00070010700d118800030382000808f50007c
:100cb0000500360010002000404088001b68ef004f
:100cc0001a68ef000700370041188000c05d20005f
:100cd000808f500002003e00a20107000100370093
:100ce0008a010700c1188000803e2000808f5000dc
:100cf00002003e0020002000404088003b003700fa
:100d000000f42100b040880000f42100c0408800b9
:100d1000e1188000c02b2000808f500002003e00b0
:100d200000712200c040880041188000c02b2000c4
:100d3000808f500002003e0000712200b040880009
:100d4000d118800040382000808f500003003e0002
:100d50000828ef003801070008003700c11880009c
:100d6000803e2000808f500003003e0020002000c5
:100d70004040880001003700df0007001b003700fb
:100d80004001200037010700e11880008057200053
:100d9000808f500006003e00c0122000de010700d8
:100da0005a010700800220002e01070005003700cd
:100db00040062000d80107006a01070080022000d9
:100dc0002801070010c0b30022e8b700100020007f
:100dd000004088000228ef000628ef001c28ef00e2
:100de000020037001000200040408800b3003700a8
:100df000a00020001b01070060a3200000000100ec
:100e0000a0002000170107000b003700a118800088
:100e1000f07c2000808f500004003600100020007d
:100e2000304088001c02070003003700100020003b
:100e300030408800e6010700c1188000f07c2000e7
:100e4000808f5000f1ff3e00a00020000501070048
:100e500044010700a00020000201070060002000fc
:100e6000004088009500370030022000b00c880058
:100e700040382000a801070005003700b00c8000b2
:100e800063004000b00c880050002000f50007000f
:100e900001188000401f2000808f5000f7ff3600af
:100ea000b00c800077004000b00c8800a00020004b
:100eb000ec000700cce2a800700020000040880091
:100ec00010002000804088007c00370080408000b7
:100ed0000000e00003003200e10f50000500320086
:100ee0000800370094c0a9009460a90074000700ae
:100ef0000500370094c0a9009460a900ce00070047
:100f0000ffff37001028ef006c0037009040800092
:100f1000e20f50002d003200e20f500005003e00ad
:100f20000000e0000a003200e10f5000140032001f
:100f30005c003700e40f500049003200e40f50001d
:100f400033003900e50f50005400320055003700df
:100f5000004180000000e000080032002028ef007f
:100f60001c28ef000621ef0094c0a8009460a9009f
:100f70001000200090408800fa0007004b00370066
:100f8000e140800050222000808f50000e0036008b
:100f900020002000904088002028ef001c28ef004f
:100fa0000621ef0094c0a9009460a800007d2000f5
:100fb000b0408800007d2000c04088001a68ef0023
:100fc0001b68ef004c00070038003700004180002c
:100fd0000000e0000d0032002028ef001c28ef0088
:100fe0000621ef0094c0a8009460a9003000200002
:100ff000904088001628ef00007d2000c040880047
:101000001a68ef001b68ef003b000700270037005d
:10101000e1408000b0442000808f50000f00360077
:101020002028ef001c28ef000621ef0094c0a90043
:101030008460a9009460a8004000200090408800cf
:10104000007d2000b0408800007d2000c040880066
:101050001a68ef001b68ef00270007001300370035
:10106000004180000000e0000b0032005000200032
:10107000904088002028ef001c28ef001628ef0081
:101080001828ef001a68ef001b68ef009460a900b1
:1010900094c0a9006800070004003700660007003c
:1010a0000200370010002000904088000300370045
:1010b0001000200000408800effd3700eefd3700f3
:1010c0000000fa0040062000b040880040062000e2
:1010d000c04088001ac8bf000004a2001ae8b70088
:1010e0001ac8bf000004a2001be8b70002000700f6
:1010f0000080fa00000006000000fa001ac8bf00d5
:10110000614060000080fb00610060004900dd007c
:10111000611680000190a100010070006016880037
:101120001bc8bf00614060000080fb0061006000e0
:101130004800dd00611680000180a1000100700000
:101140006016880020032000000d88002003200086
:10115000500d88002e003700f10c8000b040800058
:10116000808f500004003100f00c8000803eb00001
:10117000f00c880007003700f10c8000b0408000c0
:10118000808f500003003600f00c8000803eb100dc
:10119000f00c8800410d8000c0408000808f50001e
:1011a00004003100400d8000803eb000400d8800fa
:1011b00007003700410d8000c0408000808f500044
:1011c00003003600400d8000803eb100400d8800d5
:1011d000f10c8000b040800080805000703e200004
:1011e000808f500002003e00b0408000f00c88006c
:1011f000410d8000c040800080805000703e200083
:10120000808f500002003e00c0408000400d8800ea
:10121000f10c8000b0408000808f5000ceff3a007b
:10122000410d8000c0408000808f5000caff3a000e
:101230000080fa00000006000000fa00c0fd2f0048
:10124000000d8800c0fd2f00500d8800c0fd2f004c
:10125000f00c8800c0fd2f00400d88000080fa00cf
:10126000000006000200fa00000f7800f2ff0700fd
:1012700094c0a9008460a9002028ef009460a80011
:101280000621ef00000000009e0078000041800071
:10129000808f5000fcff3e0094c0a8009460a9001d
:1012a0000080fa00000006000000fa00c11880006b
:1012b000007d2000808f500002003e000428ef00d7
:1012c00010003700a1188000007d2000808f5000a2
:1012d00003003e0010002000204088000900370075
:1012e000c1188000f0f92000808f50000300360004
:1012f000300020002040880002003700200020003d
:10130000204088000080fa00000006000000fa007b
:10131000c9ff07009460a90084c0a90094c0a80078
:1013200000772100b040880000772100c04088008d
:101330001a68ef0010c0b3001be8b7001c28ef00cc
:101340006dff070000000000e140800090112000c8
:10135000808f5000fcff3600b7ff07000080fa00c6
:10136000000006000000fa00b3ff07009460a90027
:1013700084c0a90094c0a80000772100b040880074
:1013800000772100c040880010c0b3001ae8b70001
:101390001b68ef001c28ef0057ff0700000000004b
:1013a000e140800090112000808f5000fcff36004b
:1013b000a1ff07000080fa00000006000000fa000c
:1013c0009dff07009460a90084c0a90094c0a800f4
:1013d00000772100b040880000772100c0408800dd
:1013e0001a68ef0010c0b3001be8b7001c28ef001c
:1013f00041ff070000000000e140800020082000bd
:10140000808f5000fcff36008bff07000080fa0041
:10141000000006000000fa0087ff07009460a900a2
:1014200084c0a90094c0a80000772100b0408800c3
:1014300000772100c040880010c0b3001ae8b70050
:101440001b68ef001c28ef002bff070000000000c6
:10145000e140800020082000808f5000fcff360013
:1014600075ff07000080fa00000006000000fa0087
:1014700071ff07009460a90084c0a90094c0a8006f
:1014800000ee2200b040880000772100c0408800b4
:101490001a68ef001b68ef001c28ef0016ff07001a
:1014a00000000000e140800010032000808f500009
:1014b000fcff360060ff07000080fa000000060015
:1014c0000000fa005cff07009460a90084c0a90036
:1014d00094c0a80000772100b04088000077210068
:1014e000c040880010c0b3001ae8b7001b68ef00c6
:1014f0001c28ef0000ff070000000000e140800012
:1015000060212000808f5000fcff36004aff07005a
:101510000080fa00000006000200fa00000f7800c8
:1015200045ff07009460a90084c0a90094c0a800ea
:1015300000fa2000b040880000fa2000c040880077
:101540001a68ef001b68ef001c28ef00eafe070096
:10155000000000009e007800e0408000808f500076
:10156000fcff3e0034ff07000080fa000000060088
:101570000200fa00000f78002fff07009460a90016
:1015800084c0a90094c0a80000fa2000b0408800e0
:1015900000fa2000c040880010c0b3001ae8b7006d
:1015a00010c0b3001be8b7001c28ef00d2fe0700f4
:1015b000000000009e007800e0408000808f500016
:1015c000fcff3e001cff07000080fa000000060040
:1015d0000000fa0020408000e10f50001e003200a1
:1015e000e10f500005003900e20f50001e003200ec
:1015f000e30f50002000320023003700304080000d
:101600000000e00003003200e10f5000080032004b
:101610000e00370000e82300b040880000f42100ed
:10162000c04088001a68ef001b68ef000800370010
:1016300000fa2000b040880000e82300c040880085
:101640001a68ef001b68ef00010037000628ef0062
:10165000a9fe07000e00370040002000104088005f
:10166000f5fe07000a003700200020001040880027
:10167000f1fe0700060037005000200010408800ef
:10168000edfe0700020037003000200020408800f7
:101690000080fa00000006000000fa0020408000f0
:1016a000e10f50000b003200e10f5000050039003f
:1016b000e20f50001e003200e30f50002000320005
:1016c000230037003000200010408800dafe0700b9
:1016d00021003700304080000000e00003003200ad
:1016e000e10f5000080032000e00370000fa200021
:1016f000b040880000e82300c04088001a68ef006e
:101700001b68ef000800370000fa2000b040880096
:1017100000e82300c04088001a68ef001b68ef0053
:10172000010037000628ef0073fe07000a003700ab
:101730002000200010408800bffe07000600370090
:101740005000200010408800bbfe07000200370058
:1017500030002000204088000080fa0000000600d1
:101760000000fa00c1188000007d2000808f50002a
:1017700003003e0030002000504088000f0037007a
:10178000d1188000f0f92000808f50000200360050
:101790000a28ef0009003700e1188000f0f9200066
:1017a000808f500003003600100020005040880059
:1017b0000200370020002000504088000080fa001e
:1017c000000006000000fa0080022000b00c880033
:1017d000e0012000a3fe070000052000b00c8800f7
:1017e0000080fa00000006000000fa0092fe0700e8
:1017f00000f42100b040880000f42100c0408800bf
:1018000010c0b3001ae8b70010c0b3001be8b7005f
:1018100039fe070000000000c1188000f07c2000a5
:10182000808f5000fcff3e00020007000080fa009d
:10183000000006000000fa007ffe070000f421000f
:10184000b040880000f42100c04088001a68ef0012
:101850001b68ef0028fe070000000000c118800090
:10186000f07c2000808f5000fcff3e0072fe0700dd
:10187000800c200028ff0700a000200079fe070050
:0c188000b8fe07000080fa00000006001f
:020000040000fa
:10188c000008000024000000000000000000000020
:020000040000fa
:0200000401f009
:04000c00ffff0000f2
:020000040000fa
:0200000401f009
:04001000fbff0000f2
:00000001FF
