:020000040000fa
:080000000002040000000000f2
:020000040000fa
:04000800ee02000004
:020000040000fa
:04000c00ee02000000
:020000040000fa
:04001000ee020000fc
:020000040000fa
:04001400ee020000f8
:020000040000fa
:04001800ee020000f4
:020000040000fa
:04001c00ee020000f0
:020000040000fa
:04002000ee020000ec
:020000040000fa
:04002400ee020000e8
:020000040000fa
:04002800ee020000e4
:020000040000fa
:04002c00ee020000e0
:020000040000fa
:04003000ee020000dc
:020000040000fa
:04003400c8020000fe
:020000040000fa
:04003800ee020000d4
:020000040000fa
:04003c00ee020000d0
:020000040000fa
:04004000dc020000de
:020000040000fa
:04004400ee020000c8
:020000040000fa
:04004800ee020000c4
:020000040000fa
:04004c00ee020000c0
:020000040000fa
:04005000ee020000bc
:020000040000fa
:04005400ee020000b8
:020000040000fa
:04005800ee020000b4
:020000040000fa
:04005c00ee020000b0
:020000040000fa
:04006000ee020000ac
:020000040000fa
:04006400ee020000a8
:020000040000fa
:04006800ee020000a4
:020000040000fa
:04006c00ee020000a0
:020000040000fa
:04007000ee0200009c
:020000040000fa
:04007400ee02000098
:020000040000fa
:04007800ee02000094
:020000040000fa
:04007c00ee02000090
:020000040000fa
:04008000ee0200008c
:020000040000fa
:04008400ee02000088
:020000040000fa
:04008800ee02000084
:020000040000fa
:04008c00ee02000080
:020000040000fa
:04009000ee0200007c
:020000040000fa
:04009400ee02000078
:020000040000fa
:04009800ee02000074
:020000040000fa
:04009c00ee02000070
:020000040000fa
:0400a000ee0200006c
:020000040000fa
:0400a400ee02000068
:020000040000fa
:0400a800ee02000064
:020000040000fa
:0400ac00ee02000060
:020000040000fa
:0400b000ee0200005c
:020000040000fa
:0400b400ee02000058
:020000040000fa
:0400b800ee02000054
:020000040000fa
:0400bc00ee02000050
:020000040000fa
:0400c000ee0200004c
:020000040000fa
:0400c400ee02000048
:020000040000fa
:0400c800ee02000044
:020000040000fa
:0400cc00ee02000040
:020000040000fa
:0400d000ee0200003c
:020000040000fa
:0400d400ee02000038
:020000040000fa
:0400d800ee02000034
:020000040000fa
:0400dc00ee02000030
:020000040000fa
:0400e000ee0200002c
:020000040000fa
:0400e400ee02000028
:020000040000fa
:0400e800ee02000024
:020000040000fa
:0400ec00ee02000020
:020000040000fa
:0400f000ee0200001c
:020000040000fa
:0400f400ee02000018
:020000040000fa
:0400f800ee02000014
:020000040000fa
:0400fc00ee02000010
:020000040000fa
:04010000ee0200000b
:020000040000fa
:04010400ee02000007
:020000040000fa
:04010800ee02000003
:020000040000fa
:04010c00ee020000ff
:020000040000fa
:04011000ee020000fb
:020000040000fa
:04011400ee020000f7
:020000040000fa
:04011800ee020000f3
:020000040000fa
:04011c00ee020000ef
:020000040000fa
:04012000ee020000eb
:020000040000fa
:04012400ee020000e7
:020000040000fa
:04012800ee020000e3
:020000040000fa
:04012c00ee020000df
:020000040000fa
:04013000ee020000db
:020000040000fa
:04013400ee020000d7
:020000040000fa
:04013800ee020000d3
:020000040000fa
:04013c00ee020000cf
:020000040000fa
:04014000ee020000cb
:020000040000fa
:04014400ee020000c7
:020000040000fa
:04014800ee020000c3
:020000040000fa
:04014c00ee020000bf
:020000040000fa
:04015000ee020000bb
:020000040000fa
:04015400ee020000b7
:020000040000fa
:04015800ee020000b3
:020000040000fa
:04015c00ee020000af
:020000040000fa
:04016000ee020000ab
:020000040000fa
:04016400ee020000a7
:020000040000fa
:04016800ee020000a3
:020000040000fa
:04020800ee02000002
:020000040000fa
:04020c00ee020000fe
:020000040000fa
:04021000ee020000fa
:020000040000fa
:04021400ee020000f6
:020000040000fa
:04021800ee020000f2
:020000040000fa
:04021c00ee020000ee
:020000040000fa
:04022000ee020000ea
:020000040000fa
:04022400ee020000e6
:020000040000fa
:04022800ee020000e2
:020000040000fa
:04022c00ee020000de
:020000040000fa
:04023000ee020000da
:020000040000fa
:04023400c8020000fc
:020000040000fa
:04023800ee020000d2
:020000040000fa
:04023c00ee020000ce
:020000040000fa
:04024000dc020000dc
:020000040000fa
:04024400ee020000c6
:020000040000fa
:04024800ee020000c2
:020000040000fa
:04024c00ee020000be
:020000040000fa
:04025000ee020000ba
:020000040000fa
:04025400ee020000b6
:020000040000fa
:04025800ee020000b2
:020000040000fa
:04025c00ee020000ae
:020000040000fa
:04026000ee020000aa
:020000040000fa
:04026400ee020000a6
:020000040000fa
:04026800ee020000a2
:020000040000fa
:04026c00ee0200009e
:020000040000fa
:04027000ee0200009a
:020000040000fa
:04027400ee02000096
:020000040000fa
:04027800ee02000092
:020000040000fa
:04027c00ee0200008e
:020000040000fa
:04028000ee0200008a
:020000040000fa
:04028400ee02000086
:020000040000fa
:04028800ee02000082
:020000040000fa
:04028c00ee0200007e
:020000040000fa
:04029000ee0200007a
:020000040000fa
:04029400ee02000076
:020000040000fa
:04029800ee02000072
:020000040000fa
:04029c00ee0200006e
:020000040000fa
:0402a000ee0200006a
:020000040000fa
:0402a400ee02000066
:020000040000fa
:0402a800ee02000062
:020000040000fa
:0402ac00ee0200005e
:020000040000fa
:0402b000ee0200005a
:020000040000fa
:0402b400ee02000056
:020000040000fa
:0402b800ee02000052
:020000040000fa
:0402bc00ee0200004e
:020000040000fa
:0402c000ee0200004a
:020000040000fa
:0402c400ee02000046
:020000040000fa
:0402c800ee02000042
:020000040000fa
:0402cc00ee0200003e
:020000040000fa
:0402d000ee0200003a
:020000040000fa
:0402d400ee02000036
:020000040000fa
:0402d800ee02000032
:020000040000fa
:0402dc00ee0200002e
:020000040000fa
:0402e000ee0200002a
:020000040000fa
:0402e400ee02000026
:020000040000fa
:0402e800ee02000022
:020000040000fa
:0402ec00ee0200001e
:020000040000fa
:0402f000ee0200001a
:020000040000fa
:0402f400ee02000016
:020000040000fa
:0402f800ee02000012
:020000040000fa
:0402fc00ee0200000e
:020000040000fa
:04030000ee02000009
:020000040000fa
:04030400ee02000005
:020000040000fa
:04030800ee02000001
:020000040000fa
:04030c00ee020000fd
:020000040000fa
:04031000ee020000f9
:020000040000fa
:04031400ee020000f5
:020000040000fa
:04031800ee020000f1
:020000040000fa
:04031c00ee020000ed
:020000040000fa
:04032000ee020000e9
:020000040000fa
:04032400ee020000e5
:020000040000fa
:04032800ee020000e1
:020000040000fa
:04032c00ee020000dd
:020000040000fa
:04033000ee020000d9
:020000040000fa
:04033400ee020000d5
:020000040000fa
:04033800ee020000d1
:020000040000fa
:04033c00ee020000cd
:020000040000fa
:04034000ee020000c9
:020000040000fa
:04034400ee020000c5
:020000040000fa
:04034800ee020000c1
:020000040000fa
:04034c00ee020000bd
:020000040000fa
:04035000ee020000b9
:020000040000fa
:04035400ee020000b5
:020000040000fa
:04035800ee020000b1
:020000040000fa
:04035c00ee020000ad
:020000040000fa
:04036000ee020000a9
:020000040000fa
:04036400ee020000a5
:020000040000fa
:04036800ee020000a1
:020000040000fa
:100400000f8220000eff20000e0188000000000077
:10041000000020000000e000020032000001200087
:1004200020028800140007006e0007000000e000b2
:1004300003003a000069200001002000020037009c
:100440000000200001002000810f70000100320038
:1004500014000700000020000000e000020032004d
:1004600000000200000000004e0302000000000037
:100470000040da000000fe004440a9000000200017
:100480000000e0000300320000002000a00188000e
:100490004440a800000006008a1f78008b1f7800e7
:1004a0000000060091018800800478000000eb0045
:1004b0001a003700e284440032a0b4009905ba0063
:1004c000e284440032a0b4009906ba00e2844400f9
:1004d00032a0b4000006eb00476fde00fd07b2005b
:1004e000636ce10003003a00ebff07000000eb0043
:1004f0000a003700606ce10004003a00005deb0088
:100500008b05e900fdff3e00040037006168e10053
:10051000010032000086eb000b00070019c7ba008b
:100520001905ba000e04e00003003a000a00e000da
:10053000e0ff3a0000000600fe07b2009e018800be
:100540008a047800f5ff3700395dba008b05e900b1
:100550000c003200295dba008b05e900080032006a
:100560000c00e00003003a00e284440032a0b40032
:10057000f5ff370019ddba008b05e900faff3a00f4
:100580008904e800e184440032a0b40000000600c1
:10059000801f78000000fa008460a9009460a90020
:1005a00094c0a80010002000f04088000080fa00ed
:1005b0004f00780000400600801f78000000fa001d
:1005c00084c0a900e04080000000e800e04088000e
:1005d0000080fa004f007800004006000040da007a
:0805e0000000fe000000050010
:020000040000fa
:1005e8000000fa0041e3a9004143a800011a800075
:1005f800f0cf2f0000806000001a8800011a8000e8
:10060800f0f02f00808060000007200001007000db
:10061800001a88004043a800111a8000f0ff230048
:1006280000806000101a880043a3a9004363a80053
:100638004343a800111a800030f82f0000806000a2
:10064800c001b300101a88004203a90045e3a900bd
:10065800211a8000f00f2e0000806000201a880008
:10066800f0c3b30044e3b7005003a8005023a80028
:100678005083a80051a3a80051c3a8005143a80063
:100688005163a8005183a80041e3a8000080fa0044
:10069800000006000000fa000028ef0040002000db
:1006a8001040880020002000204088000628ef0025
:1006b80010002000404088000a28ef000c28ef00b6
:1006c8000e28ef0010002000804088001228ef005c
:1006d800213a8000f08f2f0000806000203a8800c7
:1006e800c002a800c022a800c802a900c822a90008
:1006f800c842a800c042a800c062a800c8e2a90079
:10070800c902a900c922a900c0c2a900c982a800bb
:10071800c9a2a800c9c2a800c9e2a80060c02100f7
:10072800800c8800f0012000900c880060c0210037
:10073800d00c8800f0012000e00c880060c0210087
:10074800200d8800f0012000300d8800a4ff07006c
:1007580005e1a8000421a90021088000f0fc2f0071
:10076800008060000050a0002008880020a1270019
:100778001008880021058000f0ff280080806000b4
:100788000000260001007000200588008460a90090
:100798009460a90031058000f08f2f000080600070
:1007a80000a0a0003005880084c0a90094c0a8005b
:1007b800007d2000f00c880040062000000d880015
:1007c800007d2000400d880040062000500d880064
:1007d80000e82300b040880000e82300c0408800fb
:1007e8001a68ef001b68ef0019010700004080003d
:1007f800e30f50008a003200e30f500005003e006e
:10080800e10f500084003200e10f500083003e00e9
:1008180009003700e50f500083003200e50f500053
:1008280080003900e60f500080003200e70f5000ca
:100838008a003200f5003700c1188000e02e200041
:10084800808f500002003e000428ef0009003700a6
:10085800c1188000703e2000808f500003003600d1
:1008680010002000204088000200370020002000ef
:100878002040880010408000e20f50004000320005
:10088800e20f500005003e000000e00008003200c2
:10089800e10f50002000320054003700e30f5000f1
:1008a8003a003200e40f50003c0032004f0037009d
:1008b80020408000e10f500005003200e10f500099
:1008c8000c003900e20f5000040032000600370027
:1008d800300020001040880007003700400020004a
:1008e80010408800040037002000200020408800c5
:1008f800010037000000000000d02700b040880049
:1009080000f42100c04088001a68ef001b68ef005f
:10091800cf0007003700370020408000e10f50006b
:100928000e003200e10f500003003900e20f5000c2
:100938000400320006003700200020001040880024
:1009480007003700400020001040880004003700ee
:10095800200020002040880001003700000000002f
:1009680000f42100b040880000d02700c040880073
:100978001a68ef001b68ef00b50007001d0037007c
:10098800db0007000228ef001a003700d800070034
:10099800100020001040880016003700c90007002a
:1009a80020408000e10f500008003200e10f5000a5
:1009b80003003900e20f500007003200070037003b
:1009c8002000200010408800070037003000200079
:1009d8001040880004003700030037002000200082
:1009e8002040880003003700020037004000200044
:1009f80010408800e1408000f0f32100808f500013
:100a0800040036006000200000408800100020002c
:100a1800804088007f0037007e0037007d00370067
:100a28007c0037007b0037007a0037008040800068
:100a38000000e00003003200e10f50000300320024
:100a48000400370074000700030037009d0007000a
:100a5800010037001028ef006e003700904080003a
:100a6800e20f500030003200e20f500005003e0057
:100a78000000e0000a003200e10f500017003200c9
:100a88005f003700e40f50004a003200e40f5000c6
:100a980034003900e50f5000570032005800370085
:100aa800f0408000e10f50000b003a001e28ef00d4
:100ab8001c28ef000021ef00100020009040880063
:100ac8001628ef00007d2000c04088001a68ef005b
:100ad8001b68ef005e0007004b003700e140800014
:100ae80050222000808f50000e0036002000200089
:100af800904088001e28ef001c28ef000021ef001e
:100b080094c0a9009460a800007d2000b04088002f
:100b1800007d2000c04088001a68ef001b68ef00c5
:100b28004b00070038003700f04080000000e0006c
:100b38000b0032001e28ef001c28ef000021ef00f8
:100b480030002000904088001628ef00007d20002b
:100b5800c04088001a68ef001b68ef003c000700df
:100b680029003700e1408000b0442000808f500009
:100b78000f0036001e28ef001c28ef000021ef00b0
:100b880094c0a9008460a9009460a80040002000d7
:100b980090408800007d2000b0408800007d200043
:100ba800c04088001a68ef001b68ef0028000700a3
:100bb80015003700f0408000e10f50000d003a00aa
:100bc80050002000904088001e28ef001c28ef00ed
:100bd8001628ef001828ef001a68ef001b68ef00ce
:100be8001e28ef001c28ef009460a90094c0a900fb
:100bf8003400070004003700320007000200370005
:100c08001000200090408800020037000028ef0004
:100c1800f6fe3700f5fe37000000fa004006200017
:100c2800b040880040062000c04088001ac8bf00b5
:100c38000004a2001ae8b7001ac8bf000004a20006
:100c48001be8b700020007000080fa000000060059
:100c58000000fa001ac8bf00614060000080fb0075
:100c6800610060004900dd00611680000190a1006c
:100c780001007000601688001bc8bf00614060005a
:100c88000080fb00610060004800dd006116800004
:100c98000180a1000100700060168800b04080004b
:100ca800400d8800c0408000f00c88002003200020
:100cb800000d880020032000500d88000080fa00f5
:100cc800000006000000fa00b0408000000d880017
:100cd800c0408000500d8800b0408000f00c8800b3
:100ce800c0408000400d88000080fa000000060027
:100cf8000000fa00f3ff070094c0a9008460a9006f
:100d08009460a8001e28ef001c28ef000021ef00c7
:080d18000080fa000000060053
:020000040000fa
:100d2000000800002000000000000000000000009b
:020000040000fa
:0200000401f009
:04000c00ffff0000f2
:00000001FF
