:020000040000fa
:080000000002040000000000f2
:020000040000fa
:04000800fe020000f4
:020000040000fa
:04000c00fe020000f0
:020000040000fa
:04001000fe020000ec
:020000040000fa
:04001400fe020000e8
:020000040000fa
:04001800fe020000e4
:020000040000fa
:04001c00fe020000e0
:020000040000fa
:04002000fe020000dc
:020000040000fa
:04002400fe020000d8
:020000040000fa
:04002800fe020000d4
:020000040000fa
:04002c00fe020000d0
:020000040000fa
:04003000fe020000cc
:020000040000fa
:04003400c8020000fe
:020000040000fa
:04003800fe020000c4
:020000040000fa
:04003c00fe020000c0
:020000040000fa
:04004000da020000e0
:020000040000fa
:04004400fe020000b8
:020000040000fa
:04004800fe020000b4
:020000040000fa
:04004c00fe020000b0
:020000040000fa
:04005000fe020000ac
:020000040000fa
:04005400fe020000a8
:020000040000fa
:04005800fe020000a4
:020000040000fa
:04005c00fe020000a0
:020000040000fa
:04006000fe0200009c
:020000040000fa
:04006400fe02000098
:020000040000fa
:04006800fe02000094
:020000040000fa
:04006c00fe02000090
:020000040000fa
:04007000fe0200008c
:020000040000fa
:04007400fe02000088
:020000040000fa
:04007800fe02000084
:020000040000fa
:04007c00fe02000080
:020000040000fa
:04008000fe0200007c
:020000040000fa
:04008400fe02000078
:020000040000fa
:04008800fe02000074
:020000040000fa
:04008c00ec02000082
:020000040000fa
:04009000fe0200006c
:020000040000fa
:04009400fe02000068
:020000040000fa
:04009800fe02000064
:020000040000fa
:04009c00fe02000060
:020000040000fa
:0400a000fe0200005c
:020000040000fa
:0400a400fe02000058
:020000040000fa
:0400a800fe02000054
:020000040000fa
:0400ac00fe02000050
:020000040000fa
:0400b000fe0200004c
:020000040000fa
:0400b400fe02000048
:020000040000fa
:0400b800fe02000044
:020000040000fa
:0400bc00fe02000040
:020000040000fa
:0400c000fe0200003c
:020000040000fa
:0400c400fe02000038
:020000040000fa
:0400c800fe02000034
:020000040000fa
:0400cc00fe02000030
:020000040000fa
:0400d000fe0200002c
:020000040000fa
:0400d400fe02000028
:020000040000fa
:0400d800fe02000024
:020000040000fa
:0400dc00fe02000020
:020000040000fa
:0400e000fe0200001c
:020000040000fa
:0400e400fe02000018
:020000040000fa
:0400e800fe02000014
:020000040000fa
:0400ec00fe02000010
:020000040000fa
:0400f000fe0200000c
:020000040000fa
:0400f400fe02000008
:020000040000fa
:0400f800fe02000004
:020000040000fa
:0400fc00fe02000000
:020000040000fa
:04010000fe020000fb
:020000040000fa
:04010400fe020000f7
:020000040000fa
:04010800fe020000f3
:020000040000fa
:04010c00fe020000ef
:020000040000fa
:04011000fe020000eb
:020000040000fa
:04011400fe020000e7
:020000040000fa
:04011800fe020000e3
:020000040000fa
:04011c00fe020000df
:020000040000fa
:04012000fe020000db
:020000040000fa
:04012400fe020000d7
:020000040000fa
:04012800fe020000d3
:020000040000fa
:04012c00fe020000cf
:020000040000fa
:04013000fe020000cb
:020000040000fa
:04013400fe020000c7
:020000040000fa
:04013800fe020000c3
:020000040000fa
:04013c00fe020000bf
:020000040000fa
:04014000fe020000bb
:020000040000fa
:04014400fe020000b7
:020000040000fa
:04014800fe020000b3
:020000040000fa
:04014c00fe020000af
:020000040000fa
:04015000fe020000ab
:020000040000fa
:04015400fe020000a7
:020000040000fa
:04015800fe020000a3
:020000040000fa
:04015c00fe0200009f
:020000040000fa
:04016000fe0200009b
:020000040000fa
:04016400fe02000097
:020000040000fa
:04016800fe02000093
:020000040000fa
:04020800fe020000f2
:020000040000fa
:04020c00fe020000ee
:020000040000fa
:04021000fe020000ea
:020000040000fa
:04021400fe020000e6
:020000040000fa
:04021800fe020000e2
:020000040000fa
:04021c00fe020000de
:020000040000fa
:04022000fe020000da
:020000040000fa
:04022400fe020000d6
:020000040000fa
:04022800fe020000d2
:020000040000fa
:04022c00fe020000ce
:020000040000fa
:04023000fe020000ca
:020000040000fa
:04023400c8020000fc
:020000040000fa
:04023800fe020000c2
:020000040000fa
:04023c00fe020000be
:020000040000fa
:04024000da020000de
:020000040000fa
:04024400fe020000b6
:020000040000fa
:04024800fe020000b2
:020000040000fa
:04024c00fe020000ae
:020000040000fa
:04025000fe020000aa
:020000040000fa
:04025400fe020000a6
:020000040000fa
:04025800fe020000a2
:020000040000fa
:04025c00fe0200009e
:020000040000fa
:04026000fe0200009a
:020000040000fa
:04026400fe02000096
:020000040000fa
:04026800fe02000092
:020000040000fa
:04026c00fe0200008e
:020000040000fa
:04027000fe0200008a
:020000040000fa
:04027400fe02000086
:020000040000fa
:04027800fe02000082
:020000040000fa
:04027c00fe0200007e
:020000040000fa
:04028000fe0200007a
:020000040000fa
:04028400fe02000076
:020000040000fa
:04028800fe02000072
:020000040000fa
:04028c00ec02000080
:020000040000fa
:04029000fe0200006a
:020000040000fa
:04029400fe02000066
:020000040000fa
:04029800fe02000062
:020000040000fa
:04029c00fe0200005e
:020000040000fa
:0402a000fe0200005a
:020000040000fa
:0402a400fe02000056
:020000040000fa
:0402a800fe02000052
:020000040000fa
:0402ac00fe0200004e
:020000040000fa
:0402b000fe0200004a
:020000040000fa
:0402b400fe02000046
:020000040000fa
:0402b800fe02000042
:020000040000fa
:0402bc00fe0200003e
:020000040000fa
:0402c000fe0200003a
:020000040000fa
:0402c400fe02000036
:020000040000fa
:0402c800fe02000032
:020000040000fa
:0402cc00fe0200002e
:020000040000fa
:0402d000fe0200002a
:020000040000fa
:0402d400fe02000026
:020000040000fa
:0402d800fe02000022
:020000040000fa
:0402dc00fe0200001e
:020000040000fa
:0402e000fe0200001a
:020000040000fa
:0402e400fe02000016
:020000040000fa
:0402e800fe02000012
:020000040000fa
:0402ec00fe0200000e
:020000040000fa
:0402f000fe0200000a
:020000040000fa
:0402f400fe02000006
:020000040000fa
:0402f800fe02000002
:020000040000fa
:0402fc00fe020000fe
:020000040000fa
:04030000fe020000f9
:020000040000fa
:04030400fe020000f5
:020000040000fa
:04030800fe020000f1
:020000040000fa
:04030c00fe020000ed
:020000040000fa
:04031000fe020000e9
:020000040000fa
:04031400fe020000e5
:020000040000fa
:04031800fe020000e1
:020000040000fa
:04031c00fe020000dd
:020000040000fa
:04032000fe020000d9
:020000040000fa
:04032400fe020000d5
:020000040000fa
:04032800fe020000d1
:020000040000fa
:04032c00fe020000cd
:020000040000fa
:04033000fe020000c9
:020000040000fa
:04033400fe020000c5
:020000040000fa
:04033800fe020000c1
:020000040000fa
:04033c00fe020000bd
:020000040000fa
:04034000fe020000b9
:020000040000fa
:04034400fe020000b5
:020000040000fa
:04034800fe020000b1
:020000040000fa
:04034c00fe020000ad
:020000040000fa
:04035000fe020000a9
:020000040000fa
:04035400fe020000a5
:020000040000fa
:04035800fe020000a1
:020000040000fa
:04035c00fe0200009d
:020000040000fa
:04036000fe02000099
:020000040000fa
:04036400fe02000095
:020000040000fa
:04036800fe02000091
:020000040000fa
:100400004f8720000eff20000e0188000000000032
:10041000000020000000e000020032000001200087
:100420002002880014000700760007000000e000aa
:1004300003003a00a09120000100200002003700d4
:100440000000200001002000810f70000100320038
:1004500014000700000020000000e000020032004d
:1004600000000200000000005e0302000000000027
:100470000040da000000fe004440a9000000200017
:100480000000e0000300320000002000a00188000e
:100490004440a800000006008a1f78008b1f7800e7
:1004a0000000060091018800800478000000eb0045
:1004b0001a003700e284440032a0b4009905ba0063
:1004c000e284440032a0b4009906ba00e2844400f9
:1004d00032a0b4000006eb00476fde00fd07b2005b
:1004e000636ce10003003a00ebff07000000eb0043
:1004f0000a003700606ce10004003a00005deb0088
:100500008b05e900fdff3e00040037006168e10053
:10051000010032000086eb000b00070019c7ba008b
:100520001905ba000e04e00003003a000a00e000da
:10053000e0ff3a0000000600fe07b2009e018800be
:100540008a047800f5ff3700395dba008b05e900b1
:100550000c003200295dba008b05e900080032006a
:100560000c00e00003003a00e284440032a0b40032
:10057000f5ff370019ddba008b05e900faff3a00f4
:100580008904e800e184440032a0b40000000600c1
:10059000801f78000000fa008460a900904380006a
:1005a0000000e800904388000080fa004f007800c7
:1005b00000400600801f78000000fa0084c0a900f7
:1005c000704380000000e800704388000080fa005b
:1005d0004f00780000400600801f78000000fa00fd
:1005e0008720a900804380000000e8008043880045
:1005f0000080fa004f007800004006000040da005a
:080600000000fe0000000500ef
:020000040000fa
:100608000000fa0041e3a9004143a800011a800054
:10061800f0cf2f0000806000001a8800011a8000c7
:10062800f0f02f00808060000007200001007000bb
:10063800001a88004043a800111a8000f0ff230028
:1006480000806000101a880043a3a9004363a80033
:100658004343a800111a800030f82f000080600082
:10066800c001b300101a88004203a90045e3a9009d
:10067800211a8000f00f2e0000806000201a8800e8
:10068800f0c3b30044e3b7005003a8005023a80008
:100698005083a80051a3a80051c3a8005143a80043
:1006a8005163a8005183a80041e3a8000080fa0024
:1006b800000006000000fa00213a8000f08f2f00a9
:1006c80000806000203a88001000200080428800e6
:1006d800400020009042880020002000a0428800ae
:1006e8005628ef005828ef0010002000d04288005c
:1006f80010002000e04288005e28ef006028ef002c
:1007080010002000104388006428ef00c002a800f1
:10071800c022a800c802a900c822a900c842a8008f
:10072800c042a800c062a800c8e2a900c902a90086
:10073800c922a900c0c2a900c982a800c9a2a800ec
:10074800c9c2a800c9e2a80060c02100800c8800c6
:10075800f0012000900c880060c02100d00c8800b7
:10076800f0012000e00c880060c02100200d880006
:10077800f0012000300d8800a1ff070005e1a80066
:100788000421a90021088000f0fc2f0000806000ef
:100798000050a0002008880050c3200010088800de
:1007a80021058000f0ff28008080600000002600fe
:1007b80001007000200588008460a9009460a900e9
:1007c80031058000f08f2f000080600000a0a0009d
:1007d8003005880084c0a90094c0a8008105800065
:1007e800f0f82f00008060000060a00080058800fd
:1007f8008720a9009720a90000e82300404388002b
:1008080000e82300504388006c68ef006d68ef0033
:100818002201070080428000e40f5000740032007b
:10082800e40f500009003e00e10f500012003200b2
:10083800e10f50000e003900e20f50006a0032004c
:10084800e30f500069003200e5003700e60f500062
:1008580069003200e60f500066003900e70f5000cb
:1008680066003200e80f500074003200dc003700e8
:1008780078010700dd003700220107009042800060
:10088800e20f500010003200e20f500005003e0059
:100898000000e00008003200e10f500008003200bc
:1008a80046003700e30f50001b003200e40f5000f1
:1008b8002e003200410037000502070041003700d2
:1008c8002f0207003f003700a0428000e10f5000d0
:1008d80007003200e10f500003003900e20f50001a
:1008e80006003200080037005228ef0009003700e0
:1008f80030002000904288000600370040002000a9
:10090800904288000300370020002000a0428800a1
:100918002c0037002b003700a0428000e10f500068
:1009280008003200e10f500003003900e20f5000c8
:10093800070032000900370030002000904288008c
:100948000900370010002000904288000600370098
:10095800400020009042880003003700200020005b
:10096800a04288001700370016003700cb000700a8
:10097800a0428000e10f500008003200e10f500053
:1009880003003900e20f500007003200070037006b
:100998002000200090428800070037003000200027
:1009a8009042880004003700030037002000200030
:1009b800a0428800030037000200370040002000f2
:1009c8009042880071438000f0e72300808f500038
:1009d80004003600700020008042880010002000cb
:1009e8001043880081003700800037007f003700ff
:1009f8007e0037007d0037007c0037001043800000
:100a08000000e00003003200e10f50000500320052
:100a18000800370094c0a9009460a900740007007a
:100a28000500370094c0a9009460a9009b00070046
:100a3800ffff37006228ef006c003700204380007a
:100a4800e20f50002d003200e20f500005003e007a
:100a58000000e0000a003200e10f500014003200ec
:100a68005c003700e40f500049003200e40f5000ea
:100a780033003900e50f50005400320055003700ac
:100a8800904380000000e000080032007228ef0068
:100a98006e28ef000021ef0094c0a8009460a90020
:100aa8001000200020438800be0007004b003700dc
:100ab8007143800050222000808f50000e003600c5
:100ac80020002000204388007228ef006e28ef00e5
:100ad8000021ef0094c0a9009460a800007d2000c8
:100ae80040438800007d2000504388006c68ef0078
:100af8006d68ef004c000700380037009043800015
:100b08000000e0000d0032007228ef006e28ef00b0
:100b18000021ef0094c0a8009460a90030002000d4
:100b2800204388006828ef00007d2000504388009b
:100b38006c68ef006d68ef003b0007002700370086
:100b480071438000b0442000808f50000f003600b1
:100b58007228ef006e28ef000021ef0094c0a90072
:100b68008460a9009460a800400020002043880009
:100b7800007d200040438800007d2000504388000d
:100b88006c68ef006d68ef0027000700130037005e
:100b9800904380000000e0000b003200500020006d
:100ba800204388007228ef006e28ef006828ef00c5
:100bb8006a28ef006c68ef006d68ef009460a90088
:100bc80094c0a9003500070004003700330007006f
:100bd800020037001000200020438800030037007f
:100be80010002000804288000aff370009ff370004
:100bf8000000fa004006200040438800400620001c
:100c0800504388006cc8bf000004a2006ce8b7001d
:100c18006cc8bf000004a2006de8b700020007001e
:100c28000080fa00000006000000fa006cc8bf004f
:100c3800614060000080fb00610060004900dd0049
:100c4800611680000190a100010070006016880004
:100c58006dc8bf00614060000080fb00610060005b
:100c68004800dd00611680000180a10001007000cd
:100c78006016880040438000400d88005043800083
:100c8800f00c880020032000000d880020032000bd
:100c9800500d88000080fa00000006000000fa00ed
:100ca80040438000000d880050438000500d8800ac
:100cb80040438000f00c880050438000400d8800bd
:100cc8000080fa00000006000200fa00000f780019
:100cd800f2ff070094c0a9008460a9007228ef0001
:100ce8009460a8000021ef00000000009e0078003a
:100cf80090438000808f5000fcff3e000080fa0087
:100d0800000006000000fa00c1188000007d2000e5
:100d1800808f500002003e005428ef000900370081
:100d2800c1188000f0f92000808f500003003600c1
:100d380020002000a0428800020037001000200098
:100d4800a04288000080fa00000006000000fa00b7
:100d5800d2ff07009460a90084c0a90094c0a8002d
:100d68000077210040438800007721005043880025
:100d78006c68ef0010c0b3006de8b7006e28ef0094
:100d8800a9ff070000000000714380002010200028
:100d9800808f5000fcff3600c0ff07000080fa007b
:100da800000006000000fa00bcff07009460a900dc
:100db80084c0a90094c0a80000772100404388009f
:100dc800007721005043880010c0b3006ce8b700da
:100dd8006d68ef006e28ef0093ff07000000000029
:100de8007143800020102000808f5000fcff3600e7
:100df800aaff07000080fa00000006000000fa00c1
:100e0800a6ff07009460a90084c0a90094c0a800a8
:100e18000077210040438800007721005043880074
:100e280010c0b3006ce8b7006d68ef006e28ef00e3
:100e38007dff0700000000007143800010202000a3
:100e4800808f5000fcff360094ff07000080fa00f6
:100e5800000006000000fa00c1188000401f2000b2
:100e6800808f500008003e0000a62e0040438800f6
:100e780000a62e00504388006c68ef006d68ef00f4
:100e880069ff0700f4ff3700c1188000803e20008a
:100e9800808f500009003e0000a62e0040438800c5
:100ea80000a62e005043880010c0b3006ce8b700bd
:100eb8006d68ef005cff0700e7ff3700c11880008e
:100ec800c05d2000808f500009003e0000a62e0063
:100ed8004043880000a62e00504388006c68ef004d
:100ee80010c0b3006de8b7004fff0700daff370006
:100ef800c1188000007d2000808f50000a003e004d
:100f080000a62e004043880000a62e00504388000b
:100f180010c0b3006ce8b70010c0b3006de8b700ac
:100f280041ff0700ccff3700c1188000409c20001b
:100f3800808f500008003e0000532700404388007f
:100f480000a62e00504388006c68ef006d68ef0023
:100f580035ff0700c0ff3700c118800080bb2000a4
:100f6800808f500009003e0000532700404388004e
:100f780000a62e005043880010c0b3006ce8b700ec
:100f88006d68ef0028ff0700b3ff3700c118800025
:100f9800c0da2000808f500009003e00005327006f
:100fa8004043880000a62e00504388006c68ef007c
:100fb80010c0b3006de8b7001bff0700a6ff37009d
:100fc800c118800000fa2000808f50000a003e00ff
:100fd800005327004043880000a62e005043880095
:100fe80010c0b3006ce8b70010c0b3006de8b700dc
:100ff8000dff070098ff3700c11880004019210035
:10100800808f500008003e0000a62e004043880054
:1010180000532700504388006c68ef006d68ef00ac
:1010280001ff07008cff3700c118800080382100bd
:10103800808f500009003e0000a62e004043880023
:10104800005327005043880010c0b3006ce8b70075
:101058006d68ef00f4fe07007fff3700c1188000bd
:10106800c0572100808f500009003e0000a62e00c6
:101078004043880000532700504388006c68ef0005
:1010880010c0b3006de8b700e7fe070072ff370035
:10109800c118800000772100808f50000a003e00b0
:1010a80000a62e00404388000053270050438800c4
:1010b80010c0b3006ce8b70010c0b3006de8b7000b
:1010c800d9fe070064ff3700f4fe070062ff37000f
:1010d8000000fa00a0428000e10f50000500320035
:1010e800e10f50000c003900e20f500004003200fc
:1010f80006003700300020009042880007003700c3
:1011080040002000904288000400370020002000a2
:10111800a04288000100370000000000b0428000b3
:101128000000e00003003200e10f50000800320028
:101138000f00370000e823004043880000fa200031
:10114800504388006c68ef006d68ef0009003700b5
:1011580000fa20004043880000f421005043880032
:1011680010c0b3006ce8b7006d68ef0001003700ed
:101178005628ef00acfe07000080fa0000000600c9
:101188000000fa00a0428000e10f50000e0032007b
:10119800e10f500003003900e20f50000400320054
:1011a8000600370020002000904288000700370022
:1011b80040002000904288000400370020002000f2
:1011c800a04288000100370000000000b042800003
:1011d8000000e00003003200e10f50000800320078
:1011e8000e00370000fa20004043880000e8230082
:1011f800504388006c68ef006d68ef000800370006
:1012080000fa20004043880000e82300504388008b
:101218006c68ef006d68ef00010037005628ef009a
:0c12280081fe07000080fa0000000600b4
:020000040000fa
:10123400500800002400000000000000000000002e
:020000040000fa
:0200000401f009
:04000c00ffff0000f2
:00000001FF
