:020000040000fa
:080000000002040000000000f2
:020000040000fa
:04000800fe020000f4
:020000040000fa
:04000c00fe020000f0
:020000040000fa
:04001000fe020000ec
:020000040000fa
:04001400fe020000e8
:020000040000fa
:04001800fe020000e4
:020000040000fa
:04001c00fe020000e0
:020000040000fa
:04002000fe020000dc
:020000040000fa
:04002400fe020000d8
:020000040000fa
:04002800fe020000d4
:020000040000fa
:04002c00fe020000d0
:020000040000fa
:04003000fe020000cc
:020000040000fa
:04003400c8020000fe
:020000040000fa
:04003800fe020000c4
:020000040000fa
:04003c00fe020000c0
:020000040000fa
:04004000da020000e0
:020000040000fa
:04004400fe020000b8
:020000040000fa
:04004800fe020000b4
:020000040000fa
:04004c00fe020000b0
:020000040000fa
:04005000fe020000ac
:020000040000fa
:04005400fe020000a8
:020000040000fa
:04005800fe020000a4
:020000040000fa
:04005c00fe020000a0
:020000040000fa
:04006000fe0200009c
:020000040000fa
:04006400fe02000098
:020000040000fa
:04006800fe02000094
:020000040000fa
:04006c00fe02000090
:020000040000fa
:04007000fe0200008c
:020000040000fa
:04007400fe02000088
:020000040000fa
:04007800fe02000084
:020000040000fa
:04007c00fe02000080
:020000040000fa
:04008000fe0200007c
:020000040000fa
:04008400fe02000078
:020000040000fa
:04008800fe02000074
:020000040000fa
:04008c00ec02000082
:020000040000fa
:04009000fe0200006c
:020000040000fa
:04009400fe02000068
:020000040000fa
:04009800fe02000064
:020000040000fa
:04009c00fe02000060
:020000040000fa
:0400a000fe0200005c
:020000040000fa
:0400a400fe02000058
:020000040000fa
:0400a800fe02000054
:020000040000fa
:0400ac00fe02000050
:020000040000fa
:0400b000fe0200004c
:020000040000fa
:0400b400fe02000048
:020000040000fa
:0400b800fe02000044
:020000040000fa
:0400bc00fe02000040
:020000040000fa
:0400c000fe0200003c
:020000040000fa
:0400c400fe02000038
:020000040000fa
:0400c800fe02000034
:020000040000fa
:0400cc00fe02000030
:020000040000fa
:0400d000fe0200002c
:020000040000fa
:0400d400fe02000028
:020000040000fa
:0400d800fe02000024
:020000040000fa
:0400dc00fe02000020
:020000040000fa
:0400e000fe0200001c
:020000040000fa
:0400e400fe02000018
:020000040000fa
:0400e800fe02000014
:020000040000fa
:0400ec00fe02000010
:020000040000fa
:0400f000fe0200000c
:020000040000fa
:0400f400fe02000008
:020000040000fa
:0400f800fe02000004
:020000040000fa
:0400fc00fe02000000
:020000040000fa
:04010000fe020000fb
:020000040000fa
:04010400fe020000f7
:020000040000fa
:04010800fe020000f3
:020000040000fa
:04010c00fe020000ef
:020000040000fa
:04011000fe020000eb
:020000040000fa
:04011400fe020000e7
:020000040000fa
:04011800fe020000e3
:020000040000fa
:04011c00fe020000df
:020000040000fa
:04012000fe020000db
:020000040000fa
:04012400fe020000d7
:020000040000fa
:04012800fe020000d3
:020000040000fa
:04012c00fe020000cf
:020000040000fa
:04013000fe020000cb
:020000040000fa
:04013400fe020000c7
:020000040000fa
:04013800fe020000c3
:020000040000fa
:04013c00fe020000bf
:020000040000fa
:04014000fe020000bb
:020000040000fa
:04014400fe020000b7
:020000040000fa
:04014800fe020000b3
:020000040000fa
:04014c00fe020000af
:020000040000fa
:04015000fe020000ab
:020000040000fa
:04015400fe020000a7
:020000040000fa
:04015800fe020000a3
:020000040000fa
:04015c00fe0200009f
:020000040000fa
:04016000fe0200009b
:020000040000fa
:04016400fe02000097
:020000040000fa
:04016800fe02000093
:020000040000fa
:04020800fe020000f2
:020000040000fa
:04020c00fe020000ee
:020000040000fa
:04021000fe020000ea
:020000040000fa
:04021400fe020000e6
:020000040000fa
:04021800fe020000e2
:020000040000fa
:04021c00fe020000de
:020000040000fa
:04022000fe020000da
:020000040000fa
:04022400fe020000d6
:020000040000fa
:04022800fe020000d2
:020000040000fa
:04022c00fe020000ce
:020000040000fa
:04023000fe020000ca
:020000040000fa
:04023400c8020000fc
:020000040000fa
:04023800fe020000c2
:020000040000fa
:04023c00fe020000be
:020000040000fa
:04024000da020000de
:020000040000fa
:04024400fe020000b6
:020000040000fa
:04024800fe020000b2
:020000040000fa
:04024c00fe020000ae
:020000040000fa
:04025000fe020000aa
:020000040000fa
:04025400fe020000a6
:020000040000fa
:04025800fe020000a2
:020000040000fa
:04025c00fe0200009e
:020000040000fa
:04026000fe0200009a
:020000040000fa
:04026400fe02000096
:020000040000fa
:04026800fe02000092
:020000040000fa
:04026c00fe0200008e
:020000040000fa
:04027000fe0200008a
:020000040000fa
:04027400fe02000086
:020000040000fa
:04027800fe02000082
:020000040000fa
:04027c00fe0200007e
:020000040000fa
:04028000fe0200007a
:020000040000fa
:04028400fe02000076
:020000040000fa
:04028800fe02000072
:020000040000fa
:04028c00ec02000080
:020000040000fa
:04029000fe0200006a
:020000040000fa
:04029400fe02000066
:020000040000fa
:04029800fe02000062
:020000040000fa
:04029c00fe0200005e
:020000040000fa
:0402a000fe0200005a
:020000040000fa
:0402a400fe02000056
:020000040000fa
:0402a800fe02000052
:020000040000fa
:0402ac00fe0200004e
:020000040000fa
:0402b000fe0200004a
:020000040000fa
:0402b400fe02000046
:020000040000fa
:0402b800fe02000042
:020000040000fa
:0402bc00fe0200003e
:020000040000fa
:0402c000fe0200003a
:020000040000fa
:0402c400fe02000036
:020000040000fa
:0402c800fe02000032
:020000040000fa
:0402cc00fe0200002e
:020000040000fa
:0402d000fe0200002a
:020000040000fa
:0402d400fe02000026
:020000040000fa
:0402d800fe02000022
:020000040000fa
:0402dc00fe0200001e
:020000040000fa
:0402e000fe0200001a
:020000040000fa
:0402e400fe02000016
:020000040000fa
:0402e800fe02000012
:020000040000fa
:0402ec00fe0200000e
:020000040000fa
:0402f000fe0200000a
:020000040000fa
:0402f400fe02000006
:020000040000fa
:0402f800fe02000002
:020000040000fa
:0402fc00fe020000fe
:020000040000fa
:04030000fe020000f9
:020000040000fa
:04030400fe020000f5
:020000040000fa
:04030800fe020000f1
:020000040000fa
:04030c00fe020000ed
:020000040000fa
:04031000fe020000e9
:020000040000fa
:04031400fe020000e5
:020000040000fa
:04031800fe020000e1
:020000040000fa
:04031c00fe020000dd
:020000040000fa
:04032000fe020000d9
:020000040000fa
:04032400fe020000d5
:020000040000fa
:04032800fe020000d1
:020000040000fa
:04032c00fe020000cd
:020000040000fa
:04033000fe020000c9
:020000040000fa
:04033400fe020000c5
:020000040000fa
:04033800fe020000c1
:020000040000fa
:04033c00fe020000bd
:020000040000fa
:04034000fe020000b9
:020000040000fa
:04034400fe020000b5
:020000040000fa
:04034800fe020000b1
:020000040000fa
:04034c00fe020000ad
:020000040000fa
:04035000fe020000a9
:020000040000fa
:04035400fe020000a5
:020000040000fa
:04035800fe020000a1
:020000040000fa
:04035c00fe0200009d
:020000040000fa
:04036000fe02000099
:020000040000fa
:04036400fe02000095
:020000040000fa
:04036800fe02000091
:020000040000fa
:100400002f8720000eff20000e0188000000000052
:10041000000020000000e000020032000001200087
:100420002002880014000700760007000000e000aa
:1004300003003a00c0cb200001002000020037007a
:100440000000200001002000810f70000100320038
:1004500014000700000020000000e000020032004d
:1004600000000200000000005e0302000000000027
:100470000040da000000fe004440a9000000200017
:100480000000e0000300320000002000a00188000e
:100490004440a800000006008a1f78008b1f7800e7
:1004a0000000060091018800800478000000eb0045
:1004b0001a003700e284440032a0b4009905ba0063
:1004c000e284440032a0b4009906ba00e2844400f9
:1004d00032a0b4000006eb00476fde00fd07b2005b
:1004e000636ce10003003a00ebff07000000eb0043
:1004f0000a003700606ce10004003a00005deb0088
:100500008b05e900fdff3e00040037006168e10053
:10051000010032000086eb000b00070019c7ba008b
:100520001905ba000e04e00003003a000a00e000da
:10053000e0ff3a0000000600fe07b2009e018800be
:100540008a047800f5ff3700395dba008b05e900b1
:100550000c003200295dba008b05e900080032006a
:100560000c00e00003003a00e284440032a0b40032
:10057000f5ff370019ddba008b05e900faff3a00f4
:100580008904e800e184440032a0b40000000600c1
:10059000801f78000000fa008460a900704380008a
:1005a0000000e800704388000080fa004f007800e7
:1005b00000400600801f78000000fa0084c0a900f7
:1005c000504380000000e800504388000080fa009b
:1005d0004f00780000400600801f78000000fa00fd
:1005e0008720a900604380000000e8006043880085
:1005f0000080fa004f007800004006000040da005a
:080600000000fe0000000500ef
:020000040000fa
:100608000000fa0041e3a9004143a800011a800054
:10061800f0cf2f0000806000001a8800011a8000c7
:10062800f0f02f00808060000007200001007000bb
:10063800001a88004043a800111a8000f0ff230028
:1006480000806000101a880043a3a9004363a80033
:100658004343a800111a800030f82f000080600082
:10066800c001b300101a88004203a90045e3a9009d
:10067800211a8000f00f2e0000806000201a8800e8
:10068800f0c3b30044e3b7005003a8005023a80008
:100698005083a80051a3a80051c3a8005143a80043
:1006a8005163a8005183a80041e3a8000080fa0024
:1006b800000006000000fa00213a8000f08f2f00a9
:1006c80000806000203a88001000200080428800e6
:1006d800500020009042880030002000a04288008e
:1006e80010002000b042880010002000c04288009e
:1006f8005c28ef0010002000f04288006028ef001e
:10070800c002a800c022a800c802a900c822a900e7
:10071800c842a800c042a800c062a800c8e2a90058
:10072800c902a900c922a900c0c2a900c982a8009b
:10073800c9a2a800c9c2a800c9e2a80060c02000d8
:10074800800c8800f0012000900c8800204e2000ca
:10075800a00c880000052000b00c880060c02100b3
:10076800d00c8800f0012000e00c880060c0210057
:10077800200d8800f0012000300d8800a0ff070040
:1007880005e1a8000421a90021088000f0fc2f0041
:10079800008060000050a0002008880040c32000ae
:1007a8001008880011e1a8001021a9008108800024
:1007b800f0fc2f00008060000050a0008008880036
:1007c80040c320006008880021e1a8002021a9007a
:1007d80001098000f0fc2f00008060000050a0009c
:1007e80000098800104e2000e008880021058000dc
:1007f800f0ff2800808060000000260001007000e3
:10080800200588008460a9009460a9003105800053
:10081800f08f2f000080600000a0a0003005880045
:1008280084c0a90094c0a80081058000f0f82f00ba
:10083800008060000060a000800588008720a90073
:100848009720a90000e823002043880000e823003f
:10085800304388006868ef006968ef008b02070082
:1008680080428000e40f50001c013200e40f500069
:1008780009003e00e10f500019003200e10f50005e
:100888000e003900e20f5000da003200e30f50008a
:10089800ea0032001b023700e60f500090013200d8
:1008a800e60f50006a013900e70f50009c01320042
:1008b800e80f5000aa013200120237004001200060
:1008c8007d0207000040eb00fa030700100020003b
:1008d80080428800a0002000770207000c02370041
:1008e8008602070090428000e20f5000120032009a
:1008f800e20f500005003e000000e0000a00320050
:10090800e10f50000a00320078003700e40f500071
:1009180042003200e40f500026003900e50f500075
:100928005900320071003700480307007100370092
:10093800780307006f003700a0428000e10f5000e5
:100948000a003200e10f500005003900e20f5000a4
:1009580009003200e30f50000f0032001100370089
:10096800300020009042880011003700400020002d
:10097800904288000e00370000f4210020438800d0
:1009880000f42100304388006868ef006968ef00d0
:10099800ee01070006003700500020009042880052
:1009a8000300370030002000a042880051003700c3
:1009b8005000370035020700a0428000e10f5000c8
:1009c80009003200e10f500005003900e20f500025
:1009d80008003200e30f5000090032000b00370016
:1009e8005228ef000c003700400020009042880099
:1009f80009003700200020009042880006003700d8
:100a0800500020009042880003003700300020008a
:100a1800a042880037003700360037001b02070065
:100a2800a0428000e10f50000a003200e10f5000a0
:100a380005003900e20f500009003200e30f5000b2
:100a48000a0032000c003700400020009042880065
:100a58000c00370010002000904288000900370081
:100a68002000200090428800060037005000200037
:100a7800904288000300370030002000a042880020
:100a88001c0037001b00370000020700a04280004e
:100a9800e10f50000a003200e10f50000500390054
:100aa800e20f500009003200e30f50000a00320044
:100ab8000a00370030002000904288000a00370002
:100ac80040002000904288000700370020002000e6
:100ad80090428800040037000300370030002000ef
:100ae800a0428800030037000200370050002000b1
:100af8009042880041188000803e2000808f50007e
:100b080014003e0040062000a2020700a0002000ba
:100b1800e9010700e1188000803e2000808f500026
:100b280003003e0040002000804288007801370022
:100b380062c8bf000004e0000600320071c8bf00b0
:100b48000004e00003003a003000200080428800e2
:100b58006f01370062c8bf000004e00007003a00d8
:100b68001118800030382000808f500003003600b4
:100b7800200020008042880065013700b0428000d4
:100b88000000e00003003200e10f50000c003200ca
:100b98001600370071c8bf000004e00007003200eb
:100ba80070c8bf000004e000040032005d030700c5
:100bb80010002000b04288000d0037000c003700fc
:100bc800c1188000007d2000808f500006003e0084
:100bd8005628ef0050002000804288000040eb00bb
:100be8003403070002003700010037005628ef00e1
:100bf8004701370050002000af010700e20107005d
:100c080050002000ac010700401f200061020700cf
:100c180040012000a80107000040eb001003070076
:100c2800c01220005b02070010c0b30062e8b700e2
:100c380010002000804288003501370010c0b30042
:100c480071e8b700b1188000007d2000808f500047
:100c580011003e00400620004e0207005000200010
:100c680095010700de0107005000200092010700ef
:100c7800800c200047020700f00207000040eb004c
:100c8800f7020700c01220004202070010002000ef
:100c98008042880010003700a00f20003d020700a6
:100ca8005000200084010700b70107005000200011
:100cb80081010700800c200036020700df020700d0
:100cc80010c0b300e6020700c0122000310207007e
:100cd80010002000804288000d013700c0428000cb
:100ce800e10f50001e003200e10f500003003900f0
:100cf800e20f50003a003200520037004001200055
:100d08006d010700d118800030382000808f500016
:100d18000500360010002000c04288006968ef0016
:100d28006868ef000700370041188000c05d2000a8
:100d3800808f500002003e00a90107000100370023
:100d480091010700c1188000803e2000808f50006c
:100d580002003e0020002000c04288003b0037000f
:100d680000f421002043880000f42100304388006b
:100d7800e1188000c02b2000808f500002003e0048
:100d8800007122003043880041188000c02b2000e9
:100d9800808f500002003e0000712200204388002e
:100da800d118800040382000808f500003003e009a
:100db8005828ef003501070008003700c1188000e7
:100dc800803e2000808f500003003e00200020005d
:100dd800c042880001003700dc0007001b00370014
:100de8004001200034010700e118800080572000ee
:100df800808f500006003e00c0122000e501070069
:100e080061010700800220002b0107000500370060
:100e180040062000df010700710107008002200062
:100e28002501070010c0b30070e8b70010002000cb
:100e3800804288005228ef005628ef006a28ef0009
:100e48000200370010002000c0428800b0003700c0
:100e580030022000b00c880000e8230020438800fe
:100e680000e82300304388006868ef006968ef00f5
:100e780094c0a9008460a9006e28ef009460a800bf
:100e88000621ef00b100070008003700704380001a
:100e9800f40f5000050036006000200080428800f2
:100ea80040062000d101070004003700d118800057
:100eb80040382000808f5000f4ff3600600020008a
:100ec8008042880092003700b00c80006300400028
:100ed800b00c880050002000f70007000100370020
:100ee8000000000001188000401f2000808f500083
:100ef800f5ff3600b00c800077004000b00c880089
:100f0800a0002000ec000700cce2a8007000200040
:100f18008042880010002000f04288007c003700e2
:100f2800f04280000000e00003003200e10f5000b2
:100f3800050032000800370094c0a9009460a90099
:100f4800740007000500370094c0a9009460a90048
:100f5800ce000700ffff37005e28ef006c00370067
:100f680000438000e20f50002d003200e20f5000d5
:100f780005003e000000e0000a003200e10f5000ca
:100f8800140032005c003700e40f500049003200c2
:100f9800e40f500033003900e50f500054003200d0
:100fa80055003700704380000000e0000800320060
:100fb8006e28ef006a28ef000621ef0094c0a80011
:100fc8009460a90010002000004388000401070075
:100fd8004b0037005143800050222000808f500082
:100fe8000e00360020002000004388006e28ef0025
:100ff8006a28ef000621ef0094c0a9009460a800b9
:10100800007d200020438800007d200030438800b8
:101018006868ef006968ef004c0007003800370087
:10102800704380000000e0000d0032006e28ef00e1
:101038006a28ef000621ef0094c0a8009460a90078
:1010480030002000004388006428ef00007d200065
:10105800304388006868ef006968ef003b000700cc
:101068002700370051438000b0442000808f500093
:101078000f0036006e28ef006a28ef000621ef0007
:1010880094c0a9008460a9009460a80040002000d2
:1010980000438800007d200020438800007d200058
:1010a800304388006868ef006968ef002700070090
:1010b80013003700704380000000e0000b0032008e
:1010c80050002000004388006e28ef006a28ef00d7
:1010d8006428ef006628ef006868ef006968ef0091
:1010e8009460a90094c0a9006800070004003700b4
:1010f8006600070002003700100020000043880047
:10110800030037001000200080428800d4fd37001b
:10111800d3fd37000000fa00400620002043880075
:10112800400620003043880068c8bf000004a200c1
:1011380068e8b70068c8bf000004a20069e8b70003
:10114800020007000080fa00000006000000fa0014
:1011580068c8bf00614060000080fb00610060005b
:101168004900dd00611680000190a10001007000b7
:101178006016880069c8bf00614060000080fb00fd
:10118800610060004800dd00611680000180a10058
:10119800010070006016880020032000000d880000
:1011a80020032000500d88002e003700f10c80002d
:1011b80020438000808f500004003100f00c800034
:1011c800803eb000f00c880007003700f10c80006a
:1011d80020438000808f500003003600f00c800010
:1011e800803eb100f00c8800410d80003043800043
:1011f800808f500004003100400d8000803eb00018
:10120800400d880007003700410d80003043800002
:10121800808f500003003600400d8000803eb100f2
:10122800400d8800f10c8000204380008080500031
:10123800703e2000808f500002003e002043800056
:10124800f00c8800410d8000304380008080500001
:10125800703e2000808f500002003e003043800026
:10126800400d8800f10c800020438000808f5000e2
:10127800ceff3a00410d800030438000808f50003f
:10128800caff3a000080fa00000006000000fa00d9
:10129800c0fd2f00000d8800c0fd2f00500d8800f4
:1012a800c0fd2f00f00c8800c0fd2f00400d880005
:1012b8000080fa00000006000200fa00000f780023
:1012c800f2ff070094c0a9008460a9006e28ef000f
:1012d8009460a8000621ef00000000009e0078003e
:1012e80070438000808f5000fcff3e0094c0a8002f
:1012f8009460a9000080fa00000006000000fa00cf
:10130800b04280000000e00003003200e10f50000e
:101318001100320019003700c1188000007d20003c
:10132800808f500002003e005428ef001400370060
:10133800a1188000007d2000808f500003003e002f
:1013480010002000a04288000d0037002000200077
:10135800a04288000a003700a1188000007d200004
:10136800808f500002003e005428ef000400370030
:1013780010002000a0428800010037005628ef0026
:101388000080fa00000006000000fa00bfff070016
:101398009460a90084c0a90094c0a8000077210027
:1013a8002043880000772100304388006868ef00f8
:1013b80010c0b30069e8b7006a28ef0063ff0700b0
:1013c800000000005143800090112000808f5000e1
:1013d800fcff3600adff07000080fa0000000600a1
:1013e8000000fa00a9ff07009460a90084c0a900c2
:1013f80094c0a800007721002043880000772100ce
:101408003043880010c0b30068e8b7006968ef008f
:101418006a28ef004dff07000000000051438000dc
:1014280090112000808f5000fcff360097ff0700c6
:101438000080fa00000006000000fa0093ff070091
:101448009460a90084c0a90094c0a8000077210076
:101458002043880000772100304388006868ef0047
:1014680010c0b30069e8b7006a28ef0037ff07002b
:10147800000000005143800020082000808f5000a9
:10148800fcff360081ff07000080fa00000006001c
:101498000000fa007dff07009460a90084c0a9003d
:1014a80094c0a8000077210020438800007721001d
:1014b8003043880010c0b30068e8b7006968ef00df
:1014c8006a28ef0021ff0700000000005143800058
:1014d80020082000808f5000fcff36006bff0700bb
:1014e8000080fa00000006000000fa0067ff07000d
:1014f8009460a90084c0a90094c0a80000ee22004e
:101508002043880000772100304388006868ef0096
:101518006968ef006a28ef000cff07000000000070
:101528005143800010032000808f5000fcff3600dc
:1015380056ff07000080fa00000006000000fa00cd
:1015480052ff07009460a90084c0a90094c0a800b5
:10155800007721002043880000772100304388006d
:1015680010c0b30068e8b7006968ef006a28ef00a8
:10157800f6fe0700000000005143800060212000b3
:10158800808f5000fcff360040ff07000080fa0003
:10159800000006000200fa00000f78003bff070079
:1015a8009460a90084c0a90094c0a80000fa200093
:1015b8002043880000fa2000304388006868ef0064
:1015c8006968ef006a28ef00e0fe070000000000ed
:1015d8009e00780050438000808f5000fcff3e0042
:1015e8002aff07000080fa00000006000200fa0047
:1015f800000f780025ff07009460a90084c0a900a7
:1016080094c0a80000fa20002043880000fa2000b7
:101618003043880010c0b30068e8b70010c0b300ba
:1016280069e8b7006a28ef00c8fe0700000000005c
:101638009e00780050438000808f5000fcff3e00e1
:1016480012ff07000080fa00000006000000fa0000
:10165800a0428000e10f50001e003200e10f500050
:1016680005003900e20f50001e003200e30f500061
:101678002000320023003700b04280000000e00064
:1016880003003200e10f5000080032000e0037005e
:1016980000e823002043880000fa20003043880037
:1016a8006868ef006968ef000800370000e8230069
:1016b8002043880000fa2000304388006868ef0063
:1016c8006968ef00010037005628ef009ffe070009
:1016d8000e0037001000200090428800ebfe070043
:1016e8000a0037002000200090428800e7fe07002b
:1016f800060037005000200090428800e3fe0700f3
:101708000200370030002000a04288000080fa0064
:10171800000006000000fa00a0428000e10f50001f
:101728000a003200e10f500005003900e20f5000b6
:101738001d003200e30f50001f0032002200370066
:101748005228ef00d1fe070021003700b042800088
:101758000000e00003003200e10f500008003200f2
:101768000e00370000fa20002043880000e823001c
:10177800304388006868ef006968ef0008003700a8
:1017880000fa20002043880000e823003043880046
:101798006868ef006968ef00010037005628ef001d
:1017a8006afe07000a0037002000200090428800e7
:1017b800b6fe07000600370050002000904288005f
:1017c800b2fe07000200370030002000a042880067
:1017d8000080fa00000006000000fa00c11880002e
:1017e800007d2000808f500003003e003000200064
:1017f800d04288000f003700d1188000f0f920008f
:10180800808f5000020036005a28ef000900370088
:10181800e1188000f0f92000808f500003003600a6
:1018280010002000d042880002003700200020006d
:10183800d04288000080fa00000006000000fa008c
:1018480080022000b00c8800e00120009afe07000a
:1018580000052000b00c88000080fa000000060097
:101868000200fa00004f780088fe070000f421000b
:101878002043880000f421003043880010c0b300e2
:1018880068e8b70010c0b30069e8b7002ffe07008a
:1018980000000000c1188000f07c2000808f5000fc
:1018a800fcff3e001e407800020007000080fa009e
:1018b800000006000200fa00004f780073fe0700df
:1018c80000f421002043880000f421003043880000
:1018d8006868ef006968ef001cfe07000000000060
:1018e800c1188000f07c2000808f5000fcff3e0073
:1018f80066fe0700800c200026ff0700a0002000dd
:101908006dfe07001e4078000004e000020032006f
:101918009dfe070001003700b1fe07000080fa00b5
:10192800000006000000fa0058fe0700eefe07005f
:101938000071220020438800007122003043880093
:1019480010c0b30068e8b7006968ef00fffd070042
:1019580000000000a1188000f07c2000808f50005b
:10196800fcff360049fe07000080fa000000060070
:020000040000fa
:1019780050080000220000000000000000000000e5
:020000040000fa
:0200000401f009
:04000c00ffff0000f2
:020000040000fa
:0200000401f009
:04001000fbff0000f2
:00000001FF
