:020000040000fa
:080000000002040000000000f2
:020000040000fa
:04000800f002000002
:020000040000fa
:04000c00f0020000fe
:020000040000fa
:04001000f0020000fa
:020000040000fa
:04001400f0020000f6
:020000040000fa
:04001800f0020000f2
:020000040000fa
:04001c00f0020000ee
:020000040000fa
:04002000f0020000ea
:020000040000fa
:04002400f0020000e6
:020000040000fa
:04002800f0020000e2
:020000040000fa
:04002c00f0020000de
:020000040000fa
:04003000f0020000da
:020000040000fa
:04003400c8020000fe
:020000040000fa
:04003800f0020000d2
:020000040000fa
:04003c00f0020000ce
:020000040000fa
:04004000f0020000ca
:020000040000fa
:04004400f0020000c6
:020000040000fa
:04004800f0020000c2
:020000040000fa
:04004c00f0020000be
:020000040000fa
:04005000f0020000ba
:020000040000fa
:04005400f0020000b6
:020000040000fa
:04005800f0020000b2
:020000040000fa
:04005c00f0020000ae
:020000040000fa
:04006000f0020000aa
:020000040000fa
:04006400f0020000a6
:020000040000fa
:04006800f0020000a2
:020000040000fa
:04006c00f00200009e
:020000040000fa
:04007000f00200009a
:020000040000fa
:04007400f002000096
:020000040000fa
:04007800f002000092
:020000040000fa
:04007c00f00200008e
:020000040000fa
:04008000f00200008a
:020000040000fa
:04008400f002000086
:020000040000fa
:04008800f002000082
:020000040000fa
:04008c00f00200007e
:020000040000fa
:04009000f00200007a
:020000040000fa
:04009400f002000076
:020000040000fa
:04009800f002000072
:020000040000fa
:04009c00f00200006e
:020000040000fa
:0400a000f00200006a
:020000040000fa
:0400a400f002000066
:020000040000fa
:0400a800f002000062
:020000040000fa
:0400ac00f00200005e
:020000040000fa
:0400b000f00200005a
:020000040000fa
:0400b400f002000056
:020000040000fa
:0400b800f002000052
:020000040000fa
:0400bc00f00200004e
:020000040000fa
:0400c000f00200004a
:020000040000fa
:0400c400f002000046
:020000040000fa
:0400c800f002000042
:020000040000fa
:0400cc00f00200003e
:020000040000fa
:0400d000f00200003a
:020000040000fa
:0400d400f002000036
:020000040000fa
:0400d800f002000032
:020000040000fa
:0400dc00f00200002e
:020000040000fa
:0400e000f00200002a
:020000040000fa
:0400e400f002000026
:020000040000fa
:0400e800f002000022
:020000040000fa
:0400ec00f00200001e
:020000040000fa
:0400f000f00200001a
:020000040000fa
:0400f400f002000016
:020000040000fa
:0400f800f002000012
:020000040000fa
:0400fc00f00200000e
:020000040000fa
:04010000f002000009
:020000040000fa
:04010400f002000005
:020000040000fa
:04010800f002000001
:020000040000fa
:04010c00f0020000fd
:020000040000fa
:04011000f0020000f9
:020000040000fa
:04011400f0020000f5
:020000040000fa
:04011800f0020000f1
:020000040000fa
:04011c00f0020000ed
:020000040000fa
:04012000f0020000e9
:020000040000fa
:04012400f0020000e5
:020000040000fa
:04012800f0020000e1
:020000040000fa
:04012c00f0020000dd
:020000040000fa
:04013000f0020000d9
:020000040000fa
:04013400f0020000d5
:020000040000fa
:04013800f0020000d1
:020000040000fa
:04013c00f0020000cd
:020000040000fa
:04014000f0020000c9
:020000040000fa
:04014400f0020000c5
:020000040000fa
:04014800f0020000c1
:020000040000fa
:04014c00f0020000bd
:020000040000fa
:04015000f0020000b9
:020000040000fa
:04015400f0020000b5
:020000040000fa
:04015800f0020000b1
:020000040000fa
:04015c00f0020000ad
:020000040000fa
:04016000f0020000a9
:020000040000fa
:04016400f0020000a5
:020000040000fa
:04016800f0020000a1
:020000040000fa
:04020800f002000000
:020000040000fa
:04020c00f0020000fc
:020000040000fa
:04021000f0020000f8
:020000040000fa
:04021400f0020000f4
:020000040000fa
:04021800f0020000f0
:020000040000fa
:04021c00f0020000ec
:020000040000fa
:04022000f0020000e8
:020000040000fa
:04022400f0020000e4
:020000040000fa
:04022800f0020000e0
:020000040000fa
:04022c00f0020000dc
:020000040000fa
:04023000f0020000d8
:020000040000fa
:04023400c8020000fc
:020000040000fa
:04023800f0020000d0
:020000040000fa
:04023c00f0020000cc
:020000040000fa
:04024000f0020000c8
:020000040000fa
:04024400f0020000c4
:020000040000fa
:04024800f0020000c0
:020000040000fa
:04024c00f0020000bc
:020000040000fa
:04025000f0020000b8
:020000040000fa
:04025400f0020000b4
:020000040000fa
:04025800f0020000b0
:020000040000fa
:04025c00f0020000ac
:020000040000fa
:04026000f0020000a8
:020000040000fa
:04026400f0020000a4
:020000040000fa
:04026800f0020000a0
:020000040000fa
:04026c00f00200009c
:020000040000fa
:04027000f002000098
:020000040000fa
:04027400f002000094
:020000040000fa
:04027800f002000090
:020000040000fa
:04027c00f00200008c
:020000040000fa
:04028000f002000088
:020000040000fa
:04028400f002000084
:020000040000fa
:04028800f002000080
:020000040000fa
:04028c00f00200007c
:020000040000fa
:04029000f002000078
:020000040000fa
:04029400f002000074
:020000040000fa
:04029800f002000070
:020000040000fa
:04029c00f00200006c
:020000040000fa
:0402a000f002000068
:020000040000fa
:0402a400f002000064
:020000040000fa
:0402a800f002000060
:020000040000fa
:0402ac00f00200005c
:020000040000fa
:0402b000f002000058
:020000040000fa
:0402b400f002000054
:020000040000fa
:0402b800f002000050
:020000040000fa
:0402bc00f00200004c
:020000040000fa
:0402c000f002000048
:020000040000fa
:0402c400f002000044
:020000040000fa
:0402c800f002000040
:020000040000fa
:0402cc00f00200003c
:020000040000fa
:0402d000f002000038
:020000040000fa
:0402d400f002000034
:020000040000fa
:0402d800f002000030
:020000040000fa
:0402dc00f00200002c
:020000040000fa
:0402e000f002000028
:020000040000fa
:0402e400f002000024
:020000040000fa
:0402e800f002000020
:020000040000fa
:0402ec00f00200001c
:020000040000fa
:0402f000f002000018
:020000040000fa
:0402f400f002000014
:020000040000fa
:0402f800f002000010
:020000040000fa
:0402fc00f00200000c
:020000040000fa
:04030000f002000007
:020000040000fa
:04030400f002000003
:020000040000fa
:04030800f0020000ff
:020000040000fa
:04030c00f0020000fb
:020000040000fa
:04031000f0020000f7
:020000040000fa
:04031400f0020000f3
:020000040000fa
:04031800f0020000ef
:020000040000fa
:04031c00f0020000eb
:020000040000fa
:04032000f0020000e7
:020000040000fa
:04032400f0020000e3
:020000040000fa
:04032800f0020000df
:020000040000fa
:04032c00f0020000db
:020000040000fa
:04033000f0020000d7
:020000040000fa
:04033400f0020000d3
:020000040000fa
:04033800f0020000cf
:020000040000fa
:04033c00f0020000cb
:020000040000fa
:04034000f0020000c7
:020000040000fa
:04034400f0020000c3
:020000040000fa
:04034800f0020000bf
:020000040000fa
:04034c00f0020000bb
:020000040000fa
:04035000f0020000b7
:020000040000fa
:04035400f0020000b3
:020000040000fa
:04035800f0020000af
:020000040000fa
:04035c00f0020000ab
:020000040000fa
:04036000f0020000a7
:020000040000fa
:04036400f0020000a3
:020000040000fa
:04036800f00200009f
:020000040000fa
:10040000ef8120000eff20000e0188000000000098
:10041000000020000000e000020032000001200087
:1004200020028800140007006f0007000000e000b1
:1004300003003a0060512000010020000200370054
:100440000000200001002000810f70000100320038
:1004500014000700000020000000e000020032004d
:100460000000020000000000f60202000000000090
:100470000040da000000fe004440a9000000200017
:100480000000e0000300320000002000a00188000e
:100490004440a800000006008a1f78008b1f7800e7
:1004a0000000060091018800800478000000eb0045
:1004b0001a003700e284440032a0b4009905ba0063
:1004c000e284440032a0b4009906ba00e2844400f9
:1004d00032a0b4000006eb00476fde00fd07b2005b
:1004e000636ce10003003a00ebff07000000eb0043
:1004f0000a003700606ce10004003a00005deb0088
:100500008b05e900fdff3e00040037006168e10053
:10051000010032000086eb000b00070019c7ba008b
:100520001905ba000e04e00003003a000a00e000da
:10053000e0ff3a0000000600fe07b2009e018800be
:100540008a047800f5ff3700395dba008b05e900b1
:100550000c003200295dba008b05e900080032006a
:100560000c00e00003003a00e284440032a0b40032
:10057000f5ff370019ddba008b05e900faff3a00f4
:100580008904e800e184440032a0b40000000600c1
:10059000801f78000000fa008460a9009460a90020
:1005a00094c0a800e04080000000e800e04088001f
:1005b0000080fa004f00780000400600801f78009d
:1005c0000000fa0084c0a900d04080000000e800cc
:1005d000d04088000080fa004f00780000400600fc
:0c05e0000040da000000fe0000000500f2
:020000040000fa
:1005ec000000fa00213a8000f08f2f00008060009c
:1005fc00203a8800e024ef00e224ef00c022a9009a
:10060c00c842a90060c02100d00c8800f001200075
:10061c00e00c880060c02100800c8800f0012000f4
:10062c00900c880005e1a8000421a9002108800095
:10063c0000032000010070002008880090d02300e7
:10064c001008880021058000f0ff280080806000e1
:10065c000000260001007000200588008460a900bd
:10066c009460a80031058000f08f2f00008060009e
:10067c0000a0a0003005880084c0a90094c0a90087
:10068c00007d2000f00c880040062000000d880042
:10069c00007d2000a00c880040062000b00c8800d3
:1006ac00700020000040880000408000e30f5000e4
:1006bc0029003200e30f500005003e00e10f50000e
:1006cc0023003200e10f500022003e0009003700e9
:1006dc00e50f500022003200e50f50001f003900da
:1006ec00e60f50001f003200e70f500029003200c7
:1006fc0098003700104080000000e000030032003a
:10070c00e10f5000080032000e003700007d200081
:10071c00a04088001628ef001868ef001968ef0059
:10072c009d000700090037001428ef00007d200011
:10073c00b04088001868ef001968ef0096000700b9
:10074c0002003700100020001040880083003700a2
:10075c008200370081003700800037007f003700af
:10076c007e003700704080000000e0000300320083
:10077c00e10f50000300320004003700780007003e
:10078c0003003700a1000700010037000e28ef001e
:10079c007200370080408000e20f500030003200c1
:1007ac00e20f500005003e000000e0000a0032009d
:1007bc00e10f50001700320064003700e40f5000c6
:1007cc0049003200e40f500034003900e60f5000ad
:1007dc00540032005d003700007d2000a0408800ee
:1007ec00007d2000b04088001868ef001968ef0009
:1007fc0069000700e04080000000e00004003200c7
:10080c0010002000804088001c28ef001a28ef0000
:10081c004f003700007d2000a0408800007d2000a4
:10082c00b040880010c0b30018e8b7001968ef009a
:10083c0059000700d1408000801a2000808f5000a2
:10084c000600360020002000804088001c28ef00a5
:10085c001a28ef0094c0a9009460a8003c0037004f
:10086c00007d2000a0408800007d2000b040880062
:10087c001868ef001968ef0047000700e04080009f
:10088c000000e000040032003000200080408800ae
:10089c001c28ef001a28ef002d003700007d2000e7
:1008ac00a0408800007d2000b040880010c0b3003c
:1008bc0018e8b7001968ef0037000700d140800036
:1008cc0010352000808f50000600360040002000bc
:1008dc00804088001c28ef001a28ef0094c0a90063
:1008ec009460a8001a003700007d2000a04088000a
:1008fc00007d2000b04088001868ef001968ef00f8
:10090c0025000700e04080000000e00004003200f9
:10091c0060002000804088001c28ef001a28ef009f
:10092c000b0037001428ef001628ef001868ef00b2
:10093c001968ef001c28ef001a28ef009460a9003a
:10094c0094c0a90031000700010037001028ef0007
:10095c00020037000028ef0053ff370052ff37002a
:10096c000000fa0040062000a0408800400620004d
:10097c00b040880018c8bf000004a20018e8b700f7
:10098c0018c8bf000004a20019e8b7000200070055
:10099c000080fa00000006000000fa0018c8bf0032
:1009ac00614060000080fb006100600000004000be
:1009bc00211680000110a100010070002016880093
:1009cc0019c8bf00614060000080fb00610060003e
:1009dc004200dd00611680000120a10001007000c2
:1009ec0060168800a0408000f00c8800b0408000a9
:1009fc00a00c880020032000000d8800200320009c
:100a0c00b00c88000080fa00000006000000fa001c
:100a1c00a021ef009621ef000080fa0000000600f4
:020000040000fa
:100a2c00000800001e000000000000000000000094
:020000040000fa
:0200000401f009
:04000c00ffff0000f2
:00000001FF
