:020000040000fa
:080000000002040000000000f2
:020000040000fa
:04000800ee02000004
:020000040000fa
:04000c00ee02000000
:020000040000fa
:04001000ee020000fc
:020000040000fa
:04001400ee020000f8
:020000040000fa
:04001800ee020000f4
:020000040000fa
:04001c00ee020000f0
:020000040000fa
:04002000ee020000ec
:020000040000fa
:04002400ee020000e8
:020000040000fa
:04002800ee020000e4
:020000040000fa
:04002c00ee020000e0
:020000040000fa
:04003000ee020000dc
:020000040000fa
:04003400c8020000fe
:020000040000fa
:04003800ee020000d4
:020000040000fa
:04003c00ee020000d0
:020000040000fa
:04004000dc020000de
:020000040000fa
:04004400ee020000c8
:020000040000fa
:04004800ee020000c4
:020000040000fa
:04004c00ee020000c0
:020000040000fa
:04005000ee020000bc
:020000040000fa
:04005400ee020000b8
:020000040000fa
:04005800ee020000b4
:020000040000fa
:04005c00ee020000b0
:020000040000fa
:04006000ee020000ac
:020000040000fa
:04006400ee020000a8
:020000040000fa
:04006800ee020000a4
:020000040000fa
:04006c00ee020000a0
:020000040000fa
:04007000ee0200009c
:020000040000fa
:04007400ee02000098
:020000040000fa
:04007800ee02000094
:020000040000fa
:04007c00ee02000090
:020000040000fa
:04008000ee0200008c
:020000040000fa
:04008400ee02000088
:020000040000fa
:04008800ee02000084
:020000040000fa
:04008c00ee02000080
:020000040000fa
:04009000ee0200007c
:020000040000fa
:04009400ee02000078
:020000040000fa
:04009800ee02000074
:020000040000fa
:04009c00ee02000070
:020000040000fa
:0400a000ee0200006c
:020000040000fa
:0400a400ee02000068
:020000040000fa
:0400a800ee02000064
:020000040000fa
:0400ac00ee02000060
:020000040000fa
:0400b000ee0200005c
:020000040000fa
:0400b400ee02000058
:020000040000fa
:0400b800ee02000054
:020000040000fa
:0400bc00ee02000050
:020000040000fa
:0400c000ee0200004c
:020000040000fa
:0400c400ee02000048
:020000040000fa
:0400c800ee02000044
:020000040000fa
:0400cc00ee02000040
:020000040000fa
:0400d000ee0200003c
:020000040000fa
:0400d400ee02000038
:020000040000fa
:0400d800ee02000034
:020000040000fa
:0400dc00ee02000030
:020000040000fa
:0400e000ee0200002c
:020000040000fa
:0400e400ee02000028
:020000040000fa
:0400e800ee02000024
:020000040000fa
:0400ec00ee02000020
:020000040000fa
:0400f000ee0200001c
:020000040000fa
:0400f400ee02000018
:020000040000fa
:0400f800ee02000014
:020000040000fa
:0400fc00ee02000010
:020000040000fa
:04010000ee0200000b
:020000040000fa
:04010400ee02000007
:020000040000fa
:04010800ee02000003
:020000040000fa
:04010c00ee020000ff
:020000040000fa
:04011000ee020000fb
:020000040000fa
:04011400ee020000f7
:020000040000fa
:04011800ee020000f3
:020000040000fa
:04011c00ee020000ef
:020000040000fa
:04012000ee020000eb
:020000040000fa
:04012400ee020000e7
:020000040000fa
:04012800ee020000e3
:020000040000fa
:04012c00ee020000df
:020000040000fa
:04013000ee020000db
:020000040000fa
:04013400ee020000d7
:020000040000fa
:04013800ee020000d3
:020000040000fa
:04013c00ee020000cf
:020000040000fa
:04014000ee020000cb
:020000040000fa
:04014400ee020000c7
:020000040000fa
:04014800ee020000c3
:020000040000fa
:04014c00ee020000bf
:020000040000fa
:04015000ee020000bb
:020000040000fa
:04015400ee020000b7
:020000040000fa
:04015800ee020000b3
:020000040000fa
:04015c00ee020000af
:020000040000fa
:04016000ee020000ab
:020000040000fa
:04016400ee020000a7
:020000040000fa
:04016800ee020000a3
:020000040000fa
:04020800ee02000002
:020000040000fa
:04020c00ee020000fe
:020000040000fa
:04021000ee020000fa
:020000040000fa
:04021400ee020000f6
:020000040000fa
:04021800ee020000f2
:020000040000fa
:04021c00ee020000ee
:020000040000fa
:04022000ee020000ea
:020000040000fa
:04022400ee020000e6
:020000040000fa
:04022800ee020000e2
:020000040000fa
:04022c00ee020000de
:020000040000fa
:04023000ee020000da
:020000040000fa
:04023400c8020000fc
:020000040000fa
:04023800ee020000d2
:020000040000fa
:04023c00ee020000ce
:020000040000fa
:04024000dc020000dc
:020000040000fa
:04024400ee020000c6
:020000040000fa
:04024800ee020000c2
:020000040000fa
:04024c00ee020000be
:020000040000fa
:04025000ee020000ba
:020000040000fa
:04025400ee020000b6
:020000040000fa
:04025800ee020000b2
:020000040000fa
:04025c00ee020000ae
:020000040000fa
:04026000ee020000aa
:020000040000fa
:04026400ee020000a6
:020000040000fa
:04026800ee020000a2
:020000040000fa
:04026c00ee0200009e
:020000040000fa
:04027000ee0200009a
:020000040000fa
:04027400ee02000096
:020000040000fa
:04027800ee02000092
:020000040000fa
:04027c00ee0200008e
:020000040000fa
:04028000ee0200008a
:020000040000fa
:04028400ee02000086
:020000040000fa
:04028800ee02000082
:020000040000fa
:04028c00ee0200007e
:020000040000fa
:04029000ee0200007a
:020000040000fa
:04029400ee02000076
:020000040000fa
:04029800ee02000072
:020000040000fa
:04029c00ee0200006e
:020000040000fa
:0402a000ee0200006a
:020000040000fa
:0402a400ee02000066
:020000040000fa
:0402a800ee02000062
:020000040000fa
:0402ac00ee0200005e
:020000040000fa
:0402b000ee0200005a
:020000040000fa
:0402b400ee02000056
:020000040000fa
:0402b800ee02000052
:020000040000fa
:0402bc00ee0200004e
:020000040000fa
:0402c000ee0200004a
:020000040000fa
:0402c400ee02000046
:020000040000fa
:0402c800ee02000042
:020000040000fa
:0402cc00ee0200003e
:020000040000fa
:0402d000ee0200003a
:020000040000fa
:0402d400ee02000036
:020000040000fa
:0402d800ee02000032
:020000040000fa
:0402dc00ee0200002e
:020000040000fa
:0402e000ee0200002a
:020000040000fa
:0402e400ee02000026
:020000040000fa
:0402e800ee02000022
:020000040000fa
:0402ec00ee0200001e
:020000040000fa
:0402f000ee0200001a
:020000040000fa
:0402f400ee02000016
:020000040000fa
:0402f800ee02000012
:020000040000fa
:0402fc00ee0200000e
:020000040000fa
:04030000ee02000009
:020000040000fa
:04030400ee02000005
:020000040000fa
:04030800ee02000001
:020000040000fa
:04030c00ee020000fd
:020000040000fa
:04031000ee020000f9
:020000040000fa
:04031400ee020000f5
:020000040000fa
:04031800ee020000f1
:020000040000fa
:04031c00ee020000ed
:020000040000fa
:04032000ee020000e9
:020000040000fa
:04032400ee020000e5
:020000040000fa
:04032800ee020000e1
:020000040000fa
:04032c00ee020000dd
:020000040000fa
:04033000ee020000d9
:020000040000fa
:04033400ee020000d5
:020000040000fa
:04033800ee020000d1
:020000040000fa
:04033c00ee020000cd
:020000040000fa
:04034000ee020000c9
:020000040000fa
:04034400ee020000c5
:020000040000fa
:04034800ee020000c1
:020000040000fa
:04034c00ee020000bd
:020000040000fa
:04035000ee020000b9
:020000040000fa
:04035400ee020000b5
:020000040000fa
:04035800ee020000b1
:020000040000fa
:04035c00ee020000ad
:020000040000fa
:04036000ee020000a9
:020000040000fa
:04036400ee020000a5
:020000040000fa
:04036800ee020000a1
:020000040000fa
:10040000ef8620000eff20000e0188000000000093
:10041000000020000000e000020032000001200087
:1004200020028800140007006e0007000000e000b2
:1004300003003a00205b200001002000020037008a
:100440000000200001002000810f70000100320038
:1004500014000700000020000000e000020032004d
:1004600000000200000000004e0302000000000037
:100470000040da000000fe004440a9000000200017
:100480000000e0000300320000002000a00188000e
:100490004440a800000006008a1f78008b1f7800e7
:1004a0000000060091018800800478000000eb0045
:1004b0001a003700e284440032a0b4009905ba0063
:1004c000e284440032a0b4009906ba00e2844400f9
:1004d00032a0b4000006eb00476fde00fd07b2005b
:1004e000636ce10003003a00ebff07000000eb0043
:1004f0000a003700606ce10004003a00005deb0088
:100500008b05e900fdff3e00040037006168e10053
:10051000010032000086eb000b00070019c7ba008b
:100520001905ba000e04e00003003a000a00e000da
:10053000e0ff3a0000000600fe07b2009e018800be
:100540008a047800f5ff3700395dba008b05e900b1
:100550000c003200295dba008b05e900080032006a
:100560000c00e00003003a00e284440032a0b40032
:10057000f5ff370019ddba008b05e900faff3a00f4
:100580008904e800e184440032a0b40000000600c1
:10059000801f78000000fa008460a9009460a90020
:1005a00094c0a80010002000604388000080fa007a
:1005b0004f00780000400600801f78000000fa001d
:1005c00084c0a900504380000000e8005043880028
:1005d0000080fa004f007800004006000040da007a
:0805e0000000fe000000050010
:020000040000fa
:1005e8000000fa0041e3a9004143a800011a800075
:1005f800f0cf2f0000806000001a8800011a8000e8
:10060800f0f02f00808060000007200001007000db
:10061800001a88004043a800111a8000f0ff230048
:1006280000806000101a880043a3a9004363a80053
:100638004343a800111a800030f82f0000806000a2
:10064800c001b300101a88004203a90045e3a900bd
:10065800211a8000f00f2e0000806000201a880008
:10066800f0c3b30044e3b7005003a8005023a80028
:100678005083a80051a3a80051c3a8005143a80063
:100688005163a8005183a80041e3a8000080fa0044
:10069800000006000000fa00213a8000f08f2f00c9
:1006a80000806000203a8800c002a800c022a8008c
:1006b800c802a900c822a900c842a800c042a800d0
:1006c800c062a800c8e2a900c902a900c922a900fd
:1006d800c0c2a900c982a800c9a2a800c9c2a800ae
:1006e800c9e2a80060c02100800c8800f001200049
:1006f800900c880060c02100d00c8800f001200018
:10070800e00c880060c02100200d8800f001200066
:10071800300d8800b2ff070005e1a8000421a900f8
:1007280021088000000320000100700020088800d4
:1007380050e821001008880021058000f0ff2800fb
:1007480080806000000026000100700020058800fd
:100758008460a9009460a90031058000f08f2f0003
:100768000080600000a0a0003005880084c0a900b7
:1007780094c0a800007d2000f00c880040062000ee
:10078800000d8800007d2000400d880040062000f4
:10079800500d88005028ef00007d2000204388007d
:1007a800007d2000304388006868ef006968ef002a
:1007b800c200070080428000e30f5000330032007f
:1007c800e30f500005003e00e10f50002d003200fd
:1007d800e10f50002c003e0009003700e50f5000e3
:1007e8002c003200e50f500029003900e60f5000b8
:1007f80029003200e70f5000330032009e00370016
:10080800c1188000e02e2000808f50000b003e00b1
:10081800100020009042880000e823002043880050
:1008280000f421003043880010c0b30068e8b70026
:100838006968ef00a1000700090037005228ef009f
:1008480000f421002043880000e82300304388009a
:100858006868ef0010c0b30069e8b70097000700a8
:1008680051438000f0f32100808f500004003600cf
:10087800600020008042880010002000f0428800bc
:100888007f0037007e0037007d0037007c0037008e
:100898007b0037007a003700f04280000000e0005b
:1008a80003003200e10f500003003200040037005b
:1008b80074000700030037009d000700010037009f
:1008c8005e28ef006e00370000438000e20f500002
:1008d80030003200e20f500005003e000000e0004a
:1008e8000a003200e10f5000170032005f003700a5
:1008f800e40f50004a003200e40f50003400390081
:10090800e50f500057003200580037006043800060
:10091800e10f50000b003a006c28ef006a28ef0046
:100928000021ef0010002000004388006428ef0039
:10093800007d2000304388006868ef006968ef0098
:100948005e0007004b003700514380005022200012
:10095800808f50000e0036002000200000438800e1
:100968006c28ef006a28ef000021ef0094c0a9006e
:100978009460a800007d200020438800007d2000ae
:10098800304388006868ef006968ef004b00070093
:1009980038003700604380000000e0000b003200a0
:1009a8006c28ef006a28ef000021ef0030002000db
:1009b800004388006428ef00007d20003043880051
:1009c8006868ef006968ef003c00070029003700fd
:1009d80051438000b0442000808f50000f00360043
:1009e8006c28ef006a28ef000021ef0094c0a900ee
:1009f8008460a9009460a80040002000004388009b
:100a0800007d200020438800007d200030438800be
:100a18006868ef006968ef002800070015003700d4
:100a280060438000e10f50000d003a0050002000a4
:100a3800004388006c28ef006a28ef006428ef0064
:100a48006628ef006868ef006968ef006c28ef001f
:100a58006a28ef009460a90094c0a9003400070038
:100a680004003700320007000200370010002000a1
:100a780000438800020037005028ef004dff370080
:100a88004cff37000000fa00400620002043880091
:100a9800400620003043880068c8bf000004a20058
:100aa80068e8b70068c8bf000004a20069e8b7009a
:100ab800020007000080fa00000006000000fa00ab
:100ac80068c8bf00614060000080fb0061006000f2
:100ad8004900dd00611680000190a100010070004e
:100ae8006016880069c8bf00614060000080fb0094
:100af800610060004800dd00611680000180a100ef
:100b0800010070006016880020438000400d8800b6
:100b180030438000f00c880020032000000d88007e
:100b280020032000500d88000080fa000000060015
:100b38000000fa0020438000000d88003043800048
:100b4800500d880020438000f00c8800304380005e
:0c0b5800400d88000080fa00000006003c
:020000040000fa
:100b6400500800001e00000000000000000000000b
:020000040000fa
:0200000401f009
:04000c00ffff0000f2
:00000001FF
