:020000040000fa
:080000000002040000000000f2
:020000040000fa
:04000800fe020000f4
:020000040000fa
:04000c00fe020000f0
:020000040000fa
:04001000fe020000ec
:020000040000fa
:04001400fe020000e8
:020000040000fa
:04001800fe020000e4
:020000040000fa
:04001c00fe020000e0
:020000040000fa
:04002000fe020000dc
:020000040000fa
:04002400fe020000d8
:020000040000fa
:04002800fe020000d4
:020000040000fa
:04002c00fe020000d0
:020000040000fa
:04003000fe020000cc
:020000040000fa
:04003400c8020000fe
:020000040000fa
:04003800fe020000c4
:020000040000fa
:04003c00fe020000c0
:020000040000fa
:04004000da020000e0
:020000040000fa
:04004400fe020000b8
:020000040000fa
:04004800fe020000b4
:020000040000fa
:04004c00fe020000b0
:020000040000fa
:04005000fe020000ac
:020000040000fa
:04005400fe020000a8
:020000040000fa
:04005800fe020000a4
:020000040000fa
:04005c00fe020000a0
:020000040000fa
:04006000fe0200009c
:020000040000fa
:04006400fe02000098
:020000040000fa
:04006800fe02000094
:020000040000fa
:04006c00fe02000090
:020000040000fa
:04007000fe0200008c
:020000040000fa
:04007400fe02000088
:020000040000fa
:04007800fe02000084
:020000040000fa
:04007c00fe02000080
:020000040000fa
:04008000fe0200007c
:020000040000fa
:04008400fe02000078
:020000040000fa
:04008800fe02000074
:020000040000fa
:04008c00ec02000082
:020000040000fa
:04009000fe0200006c
:020000040000fa
:04009400fe02000068
:020000040000fa
:04009800fe02000064
:020000040000fa
:04009c00fe02000060
:020000040000fa
:0400a000fe0200005c
:020000040000fa
:0400a400fe02000058
:020000040000fa
:0400a800fe02000054
:020000040000fa
:0400ac00fe02000050
:020000040000fa
:0400b000fe0200004c
:020000040000fa
:0400b400fe02000048
:020000040000fa
:0400b800fe02000044
:020000040000fa
:0400bc00fe02000040
:020000040000fa
:0400c000fe0200003c
:020000040000fa
:0400c400fe02000038
:020000040000fa
:0400c800fe02000034
:020000040000fa
:0400cc00fe02000030
:020000040000fa
:0400d000fe0200002c
:020000040000fa
:0400d400fe02000028
:020000040000fa
:0400d800fe02000024
:020000040000fa
:0400dc00fe02000020
:020000040000fa
:0400e000fe0200001c
:020000040000fa
:0400e400fe02000018
:020000040000fa
:0400e800fe02000014
:020000040000fa
:0400ec00fe02000010
:020000040000fa
:0400f000fe0200000c
:020000040000fa
:0400f400fe02000008
:020000040000fa
:0400f800fe02000004
:020000040000fa
:0400fc00fe02000000
:020000040000fa
:04010000fe020000fb
:020000040000fa
:04010400fe020000f7
:020000040000fa
:04010800fe020000f3
:020000040000fa
:04010c00fe020000ef
:020000040000fa
:04011000fe020000eb
:020000040000fa
:04011400fe020000e7
:020000040000fa
:04011800fe020000e3
:020000040000fa
:04011c00fe020000df
:020000040000fa
:04012000fe020000db
:020000040000fa
:04012400fe020000d7
:020000040000fa
:04012800fe020000d3
:020000040000fa
:04012c00fe020000cf
:020000040000fa
:04013000fe020000cb
:020000040000fa
:04013400fe020000c7
:020000040000fa
:04013800fe020000c3
:020000040000fa
:04013c00fe020000bf
:020000040000fa
:04014000fe020000bb
:020000040000fa
:04014400fe020000b7
:020000040000fa
:04014800fe020000b3
:020000040000fa
:04014c00fe020000af
:020000040000fa
:04015000fe020000ab
:020000040000fa
:04015400fe020000a7
:020000040000fa
:04015800fe020000a3
:020000040000fa
:04015c00fe0200009f
:020000040000fa
:04016000fe0200009b
:020000040000fa
:04016400fe02000097
:020000040000fa
:04016800fe02000093
:020000040000fa
:04020800fe020000f2
:020000040000fa
:04020c00fe020000ee
:020000040000fa
:04021000fe020000ea
:020000040000fa
:04021400fe020000e6
:020000040000fa
:04021800fe020000e2
:020000040000fa
:04021c00fe020000de
:020000040000fa
:04022000fe020000da
:020000040000fa
:04022400fe020000d6
:020000040000fa
:04022800fe020000d2
:020000040000fa
:04022c00fe020000ce
:020000040000fa
:04023000fe020000ca
:020000040000fa
:04023400c8020000fc
:020000040000fa
:04023800fe020000c2
:020000040000fa
:04023c00fe020000be
:020000040000fa
:04024000da020000de
:020000040000fa
:04024400fe020000b6
:020000040000fa
:04024800fe020000b2
:020000040000fa
:04024c00fe020000ae
:020000040000fa
:04025000fe020000aa
:020000040000fa
:04025400fe020000a6
:020000040000fa
:04025800fe020000a2
:020000040000fa
:04025c00fe0200009e
:020000040000fa
:04026000fe0200009a
:020000040000fa
:04026400fe02000096
:020000040000fa
:04026800fe02000092
:020000040000fa
:04026c00fe0200008e
:020000040000fa
:04027000fe0200008a
:020000040000fa
:04027400fe02000086
:020000040000fa
:04027800fe02000082
:020000040000fa
:04027c00fe0200007e
:020000040000fa
:04028000fe0200007a
:020000040000fa
:04028400fe02000076
:020000040000fa
:04028800fe02000072
:020000040000fa
:04028c00ec02000080
:020000040000fa
:04029000fe0200006a
:020000040000fa
:04029400fe02000066
:020000040000fa
:04029800fe02000062
:020000040000fa
:04029c00fe0200005e
:020000040000fa
:0402a000fe0200005a
:020000040000fa
:0402a400fe02000056
:020000040000fa
:0402a800fe02000052
:020000040000fa
:0402ac00fe0200004e
:020000040000fa
:0402b000fe0200004a
:020000040000fa
:0402b400fe02000046
:020000040000fa
:0402b800fe02000042
:020000040000fa
:0402bc00fe0200003e
:020000040000fa
:0402c000fe0200003a
:020000040000fa
:0402c400fe02000036
:020000040000fa
:0402c800fe02000032
:020000040000fa
:0402cc00fe0200002e
:020000040000fa
:0402d000fe0200002a
:020000040000fa
:0402d400fe02000026
:020000040000fa
:0402d800fe02000022
:020000040000fa
:0402dc00fe0200001e
:020000040000fa
:0402e000fe0200001a
:020000040000fa
:0402e400fe02000016
:020000040000fa
:0402e800fe02000012
:020000040000fa
:0402ec00fe0200000e
:020000040000fa
:0402f000fe0200000a
:020000040000fa
:0402f400fe02000006
:020000040000fa
:0402f800fe02000002
:020000040000fa
:0402fc00fe020000fe
:020000040000fa
:04030000fe020000f9
:020000040000fa
:04030400fe020000f5
:020000040000fa
:04030800fe020000f1
:020000040000fa
:04030c00fe020000ed
:020000040000fa
:04031000fe020000e9
:020000040000fa
:04031400fe020000e5
:020000040000fa
:04031800fe020000e1
:020000040000fa
:04031c00fe020000dd
:020000040000fa
:04032000fe020000d9
:020000040000fa
:04032400fe020000d5
:020000040000fa
:04032800fe020000d1
:020000040000fa
:04032c00fe020000cd
:020000040000fa
:04033000fe020000c9
:020000040000fa
:04033400fe020000c5
:020000040000fa
:04033800fe020000c1
:020000040000fa
:04033c00fe020000bd
:020000040000fa
:04034000fe020000b9
:020000040000fa
:04034400fe020000b5
:020000040000fa
:04034800fe020000b1
:020000040000fa
:04034c00fe020000ad
:020000040000fa
:04035000fe020000a9
:020000040000fa
:04035400fe020000a5
:020000040000fa
:04035800fe020000a1
:020000040000fa
:04035c00fe0200009d
:020000040000fa
:04036000fe02000099
:020000040000fa
:04036400fe02000095
:020000040000fa
:04036800fe02000091
:020000040000fa
:100400008f8720000eff20000e01880000000000f2
:10041000000020000000e000020032000001200087
:100420002002880014000700760007000000e000aa
:1004300003003a00e09d2000010020000200370088
:100440000000200001002000810f70000100320038
:1004500014000700000020000000e000020032004d
:1004600000000200000000005e0302000000000027
:100470000040da000000fe004440a9000000200017
:100480000000e0000300320000002000a00188000e
:100490004440a800000006008a1f78008b1f7800e7
:1004a0000000060091018800800478000000eb0045
:1004b0001a003700e284440032a0b4009905ba0063
:1004c000e284440032a0b4009906ba00e2844400f9
:1004d00032a0b4000006eb00476fde00fd07b2005b
:1004e000636ce10003003a00ebff07000000eb0043
:1004f0000a003700606ce10004003a00005deb0088
:100500008b05e900fdff3e00040037006168e10053
:10051000010032000086eb000b00070019c7ba008b
:100520001905ba000e04e00003003a000a00e000da
:10053000e0ff3a0000000600fe07b2009e018800be
:100540008a047800f5ff3700395dba008b05e900b1
:100550000c003200295dba008b05e900080032006a
:100560000c00e00003003a00e284440032a0b40032
:10057000f5ff370019ddba008b05e900faff3a00f4
:100580008904e800e184440032a0b40000000600c1
:10059000801f78000000fa008460a900a04380005a
:1005a0000000e800a04388000080fa004f007800b7
:1005b00000400600801f78000000fa0084c0a900f7
:1005c000804380000000e800804388000080fa003b
:1005d0004f00780000400600801f78000000fa00fd
:1005e0008720a900904380000000e8009043880025
:1005f0000080fa004f007800004006000040da005a
:080600000000fe0000000500ef
:020000040000fa
:100608000000fa0041e3a9004143a800011a800054
:10061800f0cf2f0000806000001a8800011a8000c7
:10062800f0f02f00808060000007200001007000bb
:10063800001a88004043a800111a8000f0ff230028
:1006480000806000101a880043a3a9004363a80033
:100658004343a800111a800030f82f000080600082
:10066800c001b300101a88004203a90045e3a9009d
:10067800211a8000f00f2e0000806000201a8800e8
:10068800f0c3b30044e3b7005003a8005023a80008
:100698005083a80051a3a80051c3a8005143a80043
:1006a8005163a8005183a80041e3a8000080fa0024
:1006b800000006000000fa00213a8000f08f2f00a9
:1006c80000806000203a88001000200080428800e6
:1006d800400020009042880020002000a0428800ae
:1006e8005628ef005828ef0010002000d04288005c
:1006f80010002000e04288006028ef006228ef0028
:1007080010002000204388006628ef00c002a800df
:10071800c022a800c802a900c822a900c842a8008f
:10072800c042a800c062a800c8e2a900c902a90086
:10073800c922a900c0c2a900c982a800c9a2a800ec
:10074800c9c2a800c9e2a80060c02100800c8800c6
:10075800f0012000900c880060c02100d00c8800b7
:10076800f0012000e00c880060c02100200d880006
:10077800f0012000300d8800a1ff070005e1a80066
:100788000421a90021088000f0fc2f0000806000ef
:100798000050a0002008880040c3200010088800ee
:1007a80011e1a8001021a90081088000f0fc2f00a9
:1007b800008060000050a0008008880040c320002e
:1007c8006008880021058000f0ff28008080600014
:1007d8000000260001007000200588008460a90040
:1007e8009460a90031058000f08f2f000080600020
:1007f80000a0a0003005880084c0a90094c0a8000b
:1008080081058000f0f82f00008060000060a000e3
:10081800800588008720a9009720a90000e8230008
:100828005043880000e82300604388006e68ef00aa
:100838006f68ef00bb01070040012000c4010700fa
:1008480080428000e40f500089003200e40f50001d
:1008580009003e00e10f500021003200e10f500076
:100868000e003900e20f50007f003200e30f500005
:100878007e00320049013700e60f5000cd003200fb
:10088800e60f5000ca003900e70f5000ca003200d6
:10089800e80f5000d800320040013700c0032000a4
:1008a800ab01070025020700c0032000a8010700cc
:1008b800e0010700c0032000a5010700c7010700e9
:1008c800c0032000a20107001c020700c00320008b
:1008d8009f010700403820002e020700ffff370065
:1008e800ac01070090428000e20f50001000320077
:1008f800e20f500005003e000000e0000800320052
:10090800e10f50000800320048003700e30f5000a4
:100918001c003200e40f5000300032004300370062
:1009280032020700430037005d020700410037002c
:100938007c010700a0428000e10f50000700320050
:10094800e10f500003003900e20f500006003200aa
:10095800080037005228ef00090037003000200057
:10096800904288000600370040002000904288002e
:100978000300370020002000a04288002d00370027
:100988002c00370067010700a0428000e10f5000eb
:1009980008003200e10f500003003900e20f500058
:1009a800070032000900370030002000904288001c
:1009b8000900370010002000904288000600370028
:1009c80040002000904288000300370020002000eb
:1009d800a0428800170037001600370051010700b1
:1009e800a0428000e10f500008003200e10f5000e3
:1009f80003003900e20f50000700320007003700fb
:100a080020002000904288000700370030002000b6
:100a180090428800040037000300370020002000bf
:100a2800a042880003003700020037004000200081
:100a38009042880041188000c05d2000808f5000df
:100a480008003e00e1188000c05d2000808f500043
:100a580004003e004000200080428800c0122000b0
:100a6800cc010700d0003700cf003700ce00370098
:100a7800e0428000e10f50001e003200e10f5000fc
:100a880003003900e20f50002e0032004500370005
:100a9800400120002e010700d118800030382000c6
:100aa800808f50000500360010002000e0428800ca
:100ab8006f68ef006e68ef0007003700411880008c
:100ac800c05d2000808f500002003e0059010700e1
:100ad8000100370041010700c1188000803e200056
:100ae800808f500002003e0020002000e042880075
:100af8002e00370000f421005043880000f4210044
:100b080060438800d118800040382000808f500052
:100b180003003e005c28ef000201070008003700d0
:100b2800c1188000803e2000808f500003003e00e6
:100b380020002000e042880001003700a9000700db
:100b48001a0037004001200001010700e118800069
:100b580080572000808f500006003e00c012200001
:100b68008c0107001d01070080022000f800070023
:100b78000500370040062000860107002d01070008
:100b880080022000f20007007668ef0010002000c5
:100b9800804288005228ef005628ef007028ef00a6
:100ba8000200370010002000e04288007e00370075
:100bb8007d0037007c003700204380000000e00003
:100bc80003003200e10f5000050032000800370032
:100bd80094c0a9009460a9007400070005003700bc
:100be80094c0a9009460a900ce000700ffff370059
:100bf8006428ef006c00370030438000e20f50009b
:100c08002d003200e20f500005003e000000e00019
:100c18000a003200e10f5000140032005c00370077
:100c2800e40f500049003200e40f5000330039004f
:100c3800e50f50005400320055003700a0438000f3
:100c48000000e000080032007428ef007028ef0070
:100c58000621ef0094c0a8009460a90010002000ad
:100c680030438800f30007004b00370081438000c1
:100c780050222000808f50000e00360020002000f7
:100c8800304388007428ef007028ef000621ef0039
:100c980094c0a9009460a800007d200050438800fb
:100ca800007d2000604388006e68ef006f68ef00e9
:100cb8004c00070038003700a04380000000e00027
:100cc8000d0032007428ef007028ef000621ef00b5
:100cd80094c0a8009460a900300020003043880028
:100ce8006a28ef00007d2000604388006e68ef00ee
:100cf8006f68ef003b000700270037008143800042
:100d0800b0442000808f50000f0036007428ef0098
:100d18007028ef000621ef0094c0a9008460a900a4
:100d28009460a8004000200030438800007d200027
:100d380050438800007d2000604388006e68ef0003
:100d48006f68ef002700070013003700a0438000fa
:100d58000000e0000b003200500020003043880003
:100d68007428ef007028ef006a28ef006c28ef0065
:100d78006e68ef006f68ef009460a90094c0a90046
:100d8800680007000400370066000700020037000b
:100d980010002000304388000300370010002000b6
:100da80080428800a6fe3700a5fe37000000fa0042
:100db8004006200050438800400620006043880019
:100dc8006ec8bf000004a2006ee8b7006ec8bf007e
:100dd8000004a2006fe8b700020007000080fa00d4
:100de800000006000000fa006ec8bf006140600005
:100df8000080fb00610060004900dd006116800092
:100e08000190a10001007000601688006fc8bf0043
:100e1800614060000080fb00610060004800dd0068
:100e2800611680000180a100010070006016880032
:100e380020032000000d880020032000500d8800aa
:100e48002e003700f10c800050438000808f500046
:100e580004003100f00c8000803eb000f00c8800e7
:100e680007003700f10c800050438000808f50004d
:100e780003003600f00c8000803eb100f00c8800c2
:100e8800410d800060438000808f500004003100d5
:100e9800400d8000803eb000400d880007003700fc
:100ea800410d800060438000808f500003003600b1
:100eb800400d8000803eb100400d8800f10c80009c
:100ec8005043800080805000703e2000808f50008a
:100ed80002003e0050438000f00c8800410d800065
:100ee8006043800080805000703e2000808f50005a
:100ef80002003e0060438000400d8800f10c800035
:100f080050438000808f5000ceff3a00410d800092
:100f180060438000808f5000caff3a000080fa00ca
:100f2800000006000000fa00c0fd2f00000d880038
:100f3800c0fd2f00500d8800c0fd2f00f00c880068
:100f4800c0fd2f00400d88000080fa000000060058
:100f58000200fa00000f7800f2ff070094c0a90011
:100f68008460a9007428ef009460a8000621ef00af
:100f7800000000009e007800a0438000808f500091
:100f8800fcff3e0094c0a8009460a9000080fa000d
:100f9800000006000000fa00c1188000007d200053
:100fa800808f500002003e005428ef0009003700ef
:100fb800c1188000f0f92000808f5000030036002f
:100fc80020002000a0428800020037001000200006
:100fd800a04288000080fa00000006000000fa0025
:100fe800d0ff07009460a90084c0a90094c0a8009d
:100ff8000077210050438800007721006043880073
:101008006e68ef0010c0b3006fe8b7007028ef00fb
:1010180074ff070000000000814380009011200049
:10102800808f5000fcff3600beff07000080fa00ea
:10103800000006000000fa00baff07009460a9004b
:1010480084c0a90094c0a8000077210050438800fc
:10105800007721006043880010c0b3006ee8b70035
:101068006f68ef007028ef005eff070000000000c7
:101078008143800090112000808f5000fcff3600d3
:10108800a8ff07000080fa00000006000000fa0030
:10109800a4ff07009460a90084c0a90094c0a80018
:1010a80000772100504388000077210060438800c2
:1010b8006e68ef0010c0b3006fe8b7007028ef004b
:1010c80048ff07000000000081438000200820003e
:1010d800808f5000fcff360092ff07000080fa0066
:1010e800000006000000fa008eff07009460a900c7
:1010f80084c0a90094c0a80000772100504388004c
:10110800007721006043880010c0b3006ee8b70084
:101118006f68ef007028ef0032ff07000000000042
:101128008143800020082000808f5000fcff36009b
:101138007cff07000080fa00000006000000fa00ab
:1011480078ff07009460a90084c0a90094c0a80093
:101158000077210050438800007721006043880011
:1011680010c0b3006ee8b7006f68ef007028ef009a
:101178001cff070000000000814380006021200060
:10118800808f5000fcff360066ff07000080fa00e1
:10119800000006000200fa00000f780061ff070057
:1011a8009460a90084c0a90094c0a80000fa200097
:1011b8005043880000fa2000604388006e68ef0002
:1011c8006f68ef007028ef0006ff070000000000be
:1011d8009e00780080438000808f5000fcff3e0016
:1011e80050ff07000080fa00000006000000fa0027
:1011f800a0428000e10f50001d003200e10f5000b6
:1012080003003900e20f50001d00320020003700b3
:10121800b04280000000e00003003200e10f5000ff
:10122800080032000f00370000ee2200504388000b
:1012380000fa2000604388006e68ef006f68ef00d6
:101248000900370000f421005043880000e823001b
:101258006043880010c0b3006ee8b7006f68ef0005
:10126800010037005628ef00defe07000a003700ad
:1012780030002000904288002aff0700060037004f
:10128800400020009042880026ff07000200370037
:1012980020002000a04288000080fa00000006001c
:1012a8000000fa00a0428000e10f5000090032005f
:1012b800e10f500003003900e20f50001c0032001b
:1012c8001f003700200020009042880015ff07000b
:1012d8001d003700b04280000000e000030032002b
:1012e800e10f5000080032000e00370000fa20001d
:1012f8005043880000ee2200604388006e68ef00cb
:101308006f68ef000800370000f4210050438800a0
:1013180000d02700604388006e68ef006f68ef0018
:10132800010037005628ef00aefe07000600370020
:101338004000200090428800fafe070002003700b3
:1013480020002000a04288000080fa00000006006b
:101358000000fa00c1188000007d2000808f500036
:1013680003003e0030002000f04288000f003700e4
:10137800d1188000f0f92000808f5000020036005c
:101388005e28ef0009003700e1188000f0f920001e
:10139800808f50000300360010002000f0428800c3
:1013a8000200370020002000f04288000080fa0088
:0413b800000006002b
:020000040000fa
:1013bc0050080000280000000000000000000000a1
:020000040000fa
:0200000401f009
:04000c00ffff0000f2
:020000040000fa
:0200000401f009
:04001000fbff0000f2
:00000001FF
