:020000040000fa
:080000000002040000000000f2
:020000040000fa
:04000800fe020000f4
:020000040000fa
:04000c00fe020000f0
:020000040000fa
:04001000fe020000ec
:020000040000fa
:04001400fe020000e8
:020000040000fa
:04001800fe020000e4
:020000040000fa
:04001c00fe020000e0
:020000040000fa
:04002000fe020000dc
:020000040000fa
:04002400fe020000d8
:020000040000fa
:04002800fe020000d4
:020000040000fa
:04002c00fe020000d0
:020000040000fa
:04003000fe020000cc
:020000040000fa
:04003400c8020000fe
:020000040000fa
:04003800fe020000c4
:020000040000fa
:04003c00fe020000c0
:020000040000fa
:04004000da020000e0
:020000040000fa
:04004400fe020000b8
:020000040000fa
:04004800fe020000b4
:020000040000fa
:04004c00fe020000b0
:020000040000fa
:04005000fe020000ac
:020000040000fa
:04005400fe020000a8
:020000040000fa
:04005800fe020000a4
:020000040000fa
:04005c00fe020000a0
:020000040000fa
:04006000fe0200009c
:020000040000fa
:04006400fe02000098
:020000040000fa
:04006800fe02000094
:020000040000fa
:04006c00fe02000090
:020000040000fa
:04007000fe0200008c
:020000040000fa
:04007400fe02000088
:020000040000fa
:04007800fe02000084
:020000040000fa
:04007c00fe02000080
:020000040000fa
:04008000fe0200007c
:020000040000fa
:04008400fe02000078
:020000040000fa
:04008800fe02000074
:020000040000fa
:04008c00ec02000082
:020000040000fa
:04009000fe0200006c
:020000040000fa
:04009400fe02000068
:020000040000fa
:04009800fe02000064
:020000040000fa
:04009c00fe02000060
:020000040000fa
:0400a000fe0200005c
:020000040000fa
:0400a400fe02000058
:020000040000fa
:0400a800fe02000054
:020000040000fa
:0400ac00fe02000050
:020000040000fa
:0400b000fe0200004c
:020000040000fa
:0400b400fe02000048
:020000040000fa
:0400b800fe02000044
:020000040000fa
:0400bc00fe02000040
:020000040000fa
:0400c000fe0200003c
:020000040000fa
:0400c400fe02000038
:020000040000fa
:0400c800fe02000034
:020000040000fa
:0400cc00fe02000030
:020000040000fa
:0400d000fe0200002c
:020000040000fa
:0400d400fe02000028
:020000040000fa
:0400d800fe02000024
:020000040000fa
:0400dc00fe02000020
:020000040000fa
:0400e000fe0200001c
:020000040000fa
:0400e400fe02000018
:020000040000fa
:0400e800fe02000014
:020000040000fa
:0400ec00fe02000010
:020000040000fa
:0400f000fe0200000c
:020000040000fa
:0400f400fe02000008
:020000040000fa
:0400f800fe02000004
:020000040000fa
:0400fc00fe02000000
:020000040000fa
:04010000fe020000fb
:020000040000fa
:04010400fe020000f7
:020000040000fa
:04010800fe020000f3
:020000040000fa
:04010c00fe020000ef
:020000040000fa
:04011000fe020000eb
:020000040000fa
:04011400fe020000e7
:020000040000fa
:04011800fe020000e3
:020000040000fa
:04011c00fe020000df
:020000040000fa
:04012000fe020000db
:020000040000fa
:04012400fe020000d7
:020000040000fa
:04012800fe020000d3
:020000040000fa
:04012c00fe020000cf
:020000040000fa
:04013000fe020000cb
:020000040000fa
:04013400fe020000c7
:020000040000fa
:04013800fe020000c3
:020000040000fa
:04013c00fe020000bf
:020000040000fa
:04014000fe020000bb
:020000040000fa
:04014400fe020000b7
:020000040000fa
:04014800fe020000b3
:020000040000fa
:04014c00fe020000af
:020000040000fa
:04015000fe020000ab
:020000040000fa
:04015400fe020000a7
:020000040000fa
:04015800fe020000a3
:020000040000fa
:04015c00fe0200009f
:020000040000fa
:04016000fe0200009b
:020000040000fa
:04016400fe02000097
:020000040000fa
:04016800fe02000093
:020000040000fa
:04020800fe020000f2
:020000040000fa
:04020c00fe020000ee
:020000040000fa
:04021000fe020000ea
:020000040000fa
:04021400fe020000e6
:020000040000fa
:04021800fe020000e2
:020000040000fa
:04021c00fe020000de
:020000040000fa
:04022000fe020000da
:020000040000fa
:04022400fe020000d6
:020000040000fa
:04022800fe020000d2
:020000040000fa
:04022c00fe020000ce
:020000040000fa
:04023000fe020000ca
:020000040000fa
:04023400c8020000fc
:020000040000fa
:04023800fe020000c2
:020000040000fa
:04023c00fe020000be
:020000040000fa
:04024000da020000de
:020000040000fa
:04024400fe020000b6
:020000040000fa
:04024800fe020000b2
:020000040000fa
:04024c00fe020000ae
:020000040000fa
:04025000fe020000aa
:020000040000fa
:04025400fe020000a6
:020000040000fa
:04025800fe020000a2
:020000040000fa
:04025c00fe0200009e
:020000040000fa
:04026000fe0200009a
:020000040000fa
:04026400fe02000096
:020000040000fa
:04026800fe02000092
:020000040000fa
:04026c00fe0200008e
:020000040000fa
:04027000fe0200008a
:020000040000fa
:04027400fe02000086
:020000040000fa
:04027800fe02000082
:020000040000fa
:04027c00fe0200007e
:020000040000fa
:04028000fe0200007a
:020000040000fa
:04028400fe02000076
:020000040000fa
:04028800fe02000072
:020000040000fa
:04028c00ec02000080
:020000040000fa
:04029000fe0200006a
:020000040000fa
:04029400fe02000066
:020000040000fa
:04029800fe02000062
:020000040000fa
:04029c00fe0200005e
:020000040000fa
:0402a000fe0200005a
:020000040000fa
:0402a400fe02000056
:020000040000fa
:0402a800fe02000052
:020000040000fa
:0402ac00fe0200004e
:020000040000fa
:0402b000fe0200004a
:020000040000fa
:0402b400fe02000046
:020000040000fa
:0402b800fe02000042
:020000040000fa
:0402bc00fe0200003e
:020000040000fa
:0402c000fe0200003a
:020000040000fa
:0402c400fe02000036
:020000040000fa
:0402c800fe02000032
:020000040000fa
:0402cc00fe0200002e
:020000040000fa
:0402d000fe0200002a
:020000040000fa
:0402d400fe02000026
:020000040000fa
:0402d800fe02000022
:020000040000fa
:0402dc00fe0200001e
:020000040000fa
:0402e000fe0200001a
:020000040000fa
:0402e400fe02000016
:020000040000fa
:0402e800fe02000012
:020000040000fa
:0402ec00fe0200000e
:020000040000fa
:0402f000fe0200000a
:020000040000fa
:0402f400fe02000006
:020000040000fa
:0402f800fe02000002
:020000040000fa
:0402fc00fe020000fe
:020000040000fa
:04030000fe020000f9
:020000040000fa
:04030400fe020000f5
:020000040000fa
:04030800fe020000f1
:020000040000fa
:04030c00fe020000ed
:020000040000fa
:04031000fe020000e9
:020000040000fa
:04031400fe020000e5
:020000040000fa
:04031800fe020000e1
:020000040000fa
:04031c00fe020000dd
:020000040000fa
:04032000fe020000d9
:020000040000fa
:04032400fe020000d5
:020000040000fa
:04032800fe020000d1
:020000040000fa
:04032c00fe020000cd
:020000040000fa
:04033000fe020000c9
:020000040000fa
:04033400fe020000c5
:020000040000fa
:04033800fe020000c1
:020000040000fa
:04033c00fe020000bd
:020000040000fa
:04034000fe020000b9
:020000040000fa
:04034400fe020000b5
:020000040000fa
:04034800fe020000b1
:020000040000fa
:04034c00fe020000ad
:020000040000fa
:04035000fe020000a9
:020000040000fa
:04035400fe020000a5
:020000040000fa
:04035800fe020000a1
:020000040000fa
:04035c00fe0200009d
:020000040000fa
:04036000fe02000099
:020000040000fa
:04036400fe02000095
:020000040000fa
:04036800fe02000091
:020000040000fa
:100400008f8720000eff20000e01880000000000f2
:10041000000020000000e000020032000001200087
:100420002002880014000700760007000000e000aa
:1004300003003a0000ac2000010020000200370059
:100440000000200001002000810f70000100320038
:1004500014000700000020000000e000020032004d
:1004600000000200000000005e0302000000000027
:100470000040da000000fe004440a9000000200017
:100480000000e0000300320000002000a00188000e
:100490004440a800000006008a1f78008b1f7800e7
:1004a0000000060091018800800478000000eb0045
:1004b0001a003700e284440032a0b4009905ba0063
:1004c000e284440032a0b4009906ba00e2844400f9
:1004d00032a0b4000006eb00476fde00fd07b2005b
:1004e000636ce10003003a00ebff07000000eb0043
:1004f0000a003700606ce10004003a00005deb0088
:100500008b05e900fdff3e00040037006168e10053
:10051000010032000086eb000b00070019c7ba008b
:100520001905ba000e04e00003003a000a00e000da
:10053000e0ff3a0000000600fe07b2009e018800be
:100540008a047800f5ff3700395dba008b05e900b1
:100550000c003200295dba008b05e900080032006a
:100560000c00e00003003a00e284440032a0b40032
:10057000f5ff370019ddba008b05e900faff3a00f4
:100580008904e800e184440032a0b40000000600c1
:10059000801f78000000fa008460a900904380006a
:1005a0000000e800904388000080fa004f007800c7
:1005b00000400600801f78000000fa0084c0a900f7
:1005c000704380000000e800704388000080fa005b
:1005d0004f00780000400600801f78000000fa00fd
:1005e0008720a900804380000000e8008043880045
:1005f0000080fa004f007800004006000040da005a
:080600000000fe0000000500ef
:020000040000fa
:100608000000fa0041e3a9004143a800011a800054
:10061800f0cf2f0000806000001a8800011a8000c7
:10062800f0f02f00808060000007200001007000bb
:10063800001a88004043a800111a8000f0ff230028
:1006480000806000101a880043a3a9004363a80033
:100658004343a800111a800030f82f000080600082
:10066800c001b300101a88004203a90045e3a9009d
:10067800211a8000f00f2e0000806000201a8800e8
:10068800f0c3b30044e3b7005003a8005023a80008
:100698005083a80051a3a80051c3a8005143a80043
:1006a8005163a8005183a80041e3a8000080fa0024
:1006b800000006000000fa00213a8000f08f2f00a9
:1006c80000806000203a88001000200080428800e6
:1006d800400020009042880020002000a0428800ae
:1006e8005628ef005828ef0010002000d04288005c
:1006f80010002000e04288006028ef006228ef0028
:1007080010002000204388006628ef00c002a800df
:10071800c022a800c802a900c822a900c842a8008f
:10072800c042a800c062a800c8e2a900c902a90086
:10073800c922a900c0c2a900c982a800c9a2a800ec
:10074800c9c2a800c9e2a80060c02000800c8800c7
:10075800f0012000900c8800204e2000a00c88009a
:1007680000052000b00c880060c02100d00c880073
:10077800f0012000e00c880060c02100200d8800f6
:10078800f0012000300d88009dff070005e1a8005a
:100798000421a90021088000f0fc2f0000806000df
:1007a8000050a0002008880040c3200010088800de
:1007b80011e1a8001021a90081088000f0fc2f0099
:1007c800008060000050a0008008880040c320001e
:1007d8006008880021e1a8002021a9000109800003
:1007e800f0fc2f00008060000050a0000009880085
:1007f800104e2000e008880021058000f0ff280046
:10080800808060000000260001007000200588003c
:100818008460a9009460a90031058000f08f2f0042
:100828000080600000a0a0003005880084c0a900f6
:1008380094c0a80081058000f0f82f0000806000b7
:100848000060a000800588008720a9009720a900e3
:1008580000e823004043880000e823005043880054
:100868006c68ef006d68ef00e901070040012000a7
:10087800f201070080428000e40f5000ab00320014
:10088800e40f500009003e00e10f50001400320050
:10089800e10f50000e003900e20f50007a003200dc
:1008a800e30f50007900320077013700e60f50005f
:1008b800fb003200e60f5000f8003900e70f500047
:1008c800f8003200e80f5000060132006e013700d0
:1008d80040062000d90107001e0307006d013700fc
:1008e800e701070090428000e20f5000100032003c
:1008f800e20f500005003e000000e0000800320052
:10090800e10f50000800320048003700e30f5000a4
:100918001c003200e40f5000300032004300370062
:100928009a02070043003700c5020700410037005c
:10093800b7010700a0428000e10f50000700320015
:10094800e10f500003003900e20f500006003200aa
:10095800080037005228ef00090037003000200057
:10096800904288000600370040002000904288002e
:100978000300370020002000a04288002d00370027
:100988002c003700a2010700a0428000e10f5000b0
:1009980008003200e10f500003003900e20f500058
:1009a800070032000900370030002000904288001c
:1009b8000900370010002000904288000600370028
:1009c80040002000904288000300370020002000eb
:1009d800a042880017003700160037008c01070076
:1009e800a0428000e10f500008003200e10f5000e3
:1009f80003003900e20f50000700320007003700fb
:100a080020002000904288000700370030002000b6
:100a180090428800040037000300370020002000bf
:100a2800a042880003003700020037004000200081
:100a38009042880041188000803e2000808f50003e
:100a480010003e00400120007c010700e1188000f2
:100a5800803e2000808f500002003e0040002000b1
:100a68008042880076c8bf000004e00003003a0016
:100a7800200020008042880002003700300020005b
:100a8800804288000301370002013700b118800056
:100a9800007d2000808f500012003e00400620009c
:100aa8000c02070050002000640107009c010700a9
:100ab8005000200061010700800c2000050207009b
:100ac800a4020700800c2000180207005000200034
:100ad8005a0107007c010700400620005701070063
:100ae80011003700a00f2000fa0107005000200075
:100af8005201070074010700500020004f01070051
:100b0800800c2000f301070092020700800c2000ef
:100b18000602070050002000480107008001070076
:100b28004006200045010700da003700e042800057
:100b3800e10f50001e003200e10f500003003900a1
:100b4800e20f50003a003200510037004001200007
:100b58003a010700d118800030382000808f5000fb
:100b68000500360010002000e04288006d68ef00a4
:100b78006c68ef000700370041188000c05d200056
:100b8800808f500002003e00650107000100370019
:100b98004d010700c1188000803e2000808f500062
:100ba80002003e0020002000e04288003a003700a2
:100bb80000f421004043880000f4210050438800dd
:100bc800e1188000c02b2000808f500002003e00fa
:100bd800007122005043880041188000c02b20007b
:100be800808f500002003e000071220040438800c0
:100bf800d118800040382000808f500003003e004c
:100c08005c28ef000201070008003700c1188000c7
:100c1800803e2000808f500003003e00200020000e
:100c2800e042880001003700a90007001a003700d9
:100c38004001200001010700e118800080572000d2
:100c4800808f500006003e00c0122000a10107005e
:100c58001d01070080022000f8000700050037008a
:100c6800400620009b0107002d010700800220009c
:100c7800f20007007468ef0010002000804288002e
:100c88005228ef005628ef006e28ef0002003700c8
:100c980010002000e04288007e0037007d00370009
:100ca8007c003700204380000000e0000300320091
:100cb800e10f5000050032000800370094c0a90079
:100cc8009460a900740007000500370094c0a900cb
:100cd8009460a900ce000700ffff37006428ef00ea
:100ce8006c00370030438000e20f50002d003200c6
:100cf800e20f500005003e000000e0000a0032004c
:100d0800e10f5000140032005c003700e40f50007f
:100d180049003200e40f500033003900e50f50005d
:100d28005400320055003700904380000000e00076
:100d3800080032007228ef006e28ef000621ef004d
:100d480094c0a8009460a9001000200030438800d7
:100d5800f30007004b003700714380005022200049
:100d6800808f50000e00360020002000304388009d
:100d78007228ef006e28ef000621ef0094c0a9004a
:100d88009460a800007d200040438800007d20007a
:100d9800504388006c68ef006d68ef004c00070056
:100da80038003700904380000000e0000d0032005a
:100db8007228ef006e28ef000621ef0094c0a8000b
:100dc8009460a90030002000304388006828ef00b4
:100dd800007d2000504388006c68ef006d68ef00cc
:100de8003b0007002700370071438000b044200013
:100df800808f50000f0036007228ef006e28ef0039
:100e08000621ef0094c0a9008460a9009460a8009e
:100e18004000200030438800007d200040438800c7
:100e2800007d2000504388006c68ef006d68ef007b
:100e38002700070013003700904380000000e000ff
:100e48000b00320050002000304388007228ef0069
:100e58006e28ef006828ef006a28ef006c68ef0042
:100e68006d68ef009460a90094c0a90068000700ad
:100e78000400370066000700020037001000200059
:100e880030438800030037001000200080428800ab
:100e980078fe370077fe37000000fa004006200091
:100ea8004043880040062000504388006cc8bf00bb
:100eb8000004a2006ce8b7006cc8bf000004a200e0
:100ec8006de8b700020007000080fa000000060085
:100ed8000000fa006cc8bf00614060000080fb00a1
:100ee800610060004900dd00611680000190a100ea
:100ef80001007000601688006dc8bf006140600086
:100f08000080fb00610060004800dd006116800081
:100f18000180a100010070006016880020032000f5
:100f2800000d880020032000500d88002e00370097
:100f3800f10c800040438000808f50000400310095
:100f4800f00c8000803eb000f00c880007003700ed
:100f5800f10c800040438000808f50000300360071
:100f6800f00c8000803eb100f00c8800410d80003c
:100f780050438000808f500004003100400d8000f5
:100f8800803eb000400d880007003700410d80000a
:100f980050438000808f500003003600400d8000d1
:100fa800803eb100400d8800f10c80004043800075
:100fb80080805000703e2000808f500002003e006c
:100fc80040438000f00c8800410d800050438000b1
:100fd80080805000703e2000808f500002003e004c
:100fe80050438000400d8800f10c80004043800091
:100ff800808f5000ceff3a00410d800050438000a2
:10100800808f5000caff3a000080fa0000000600f6
:101018000000fa00c0fd2f00000d8800c0fd2f0061
:10102800500d8800c0fd2f00f00c8800c0fd2f0077
:10103800400d88000080fa00000006000200fa0057
:10104800000f7800f2ff070094c0a9008460a9008f
:101058007228ef009460a8000621ef00000000004d
:101068009e00780090438000808f5000fcff3e0077
:1010780094c0a8009460a9000080fa00000006004f
:101088000000fa00c1188000007d2000808f500009
:1010980002003e005428ef0009003700c118800004
:1010a800f0f92000808f5000030036002000200057
:1010b800a04288000200370010002000a0428800eb
:1010c8000080fa00000006000000fa00d0ff0700c8
:1010d8009460a90084c0a90094c0a80000772100ea
:1010e8004043880000772100504388006c68ef0077
:1010f80010c0b3006de8b7006e28ef0074ff07005a
:10110800000000007143800090112000808f500083
:10111800fcff3600beff07000080fa000000060052
:101128000000fa00baff07009460a90084c0a90073
:1011380094c0a80000772100404388000077210070
:101148005043880010c0b3006ce8b7006d68ef002a
:101158006e28ef005eff070000000000714380006a
:1011680090112000808f5000fcff3600a8ff070078
:101178000080fa00000006000000fa00a4ff070043
:101188009460a90084c0a90094c0a8000077210039
:101198004043880000772100504388006c68ef00c6
:1011a80010c0b3006de8b7006e28ef0048ff0700d5
:1011b800000000007143800020082000808f50004c
:1011c800fcff360092ff07000080fa0000000600ce
:1011d8000000fa008eff07009460a90084c0a900ef
:1011e80094c0a800007721004043880000772100c0
:1011f8005043880010c0b3006ce8b7006d68ef007a
:101208006e28ef0032ff07000000000071438000e5
:1012180020082000808f5000fcff36007cff07006c
:101228000080fa00000006000000fa0078ff0700be
:101238009460a90084c0a90094c0a80000ee220010
:101248004043880000772100504388006c68ef0015
:101258006d68ef006e28ef001dff0700000000001a
:101268007143800010032000808f5000fcff36007f
:1012780067ff07000080fa00000006000000fa007f
:1012880063ff07009460a90084c0a90094c0a80067
:1012980000772100404388000077210050438800f0
:1012a80010c0b3006ce8b7006d68ef006e28ef005f
:1012b80007ff070000000000714380006021200044
:1012c800808f5000fcff360051ff07000080fa00b5
:1012d800000006000200fa00000f78004cff07002b
:1012e8009460a90084c0a90094c0a80000fa200056
:1012f8004043880000fa2000504388006c68ef00e3
:101308006d68ef006e28ef00f1fe07000000000096
:101318009e00780070438000808f5000fcff3e00e4
:101328003bff07000080fa00000006000200fa00f8
:10133800000f780036ff07009460a90084c0a90058
:1013480094c0a80000fa20004043880000fa20005a
:101358005043880010c0b3006ce8b70010c0b30059
:101368006de8b7006e28ef00d9fe07000000000006
:101378009e00780070438000808f5000fcff3e0084
:1013880023ff07000080fa00000006000000fa00b2
:10139800a0428000e10f50001d003200e10f500014
:1013a80003003900e20f50001d0032002000370012
:1013b800b04280000000e00003003200e10f50005e
:1013c800080032000f00370000ee2200404388007a
:1013d80000fa2000504388006c68ef006d68ef0049
:1013e8000900370000f421004043880000e823008a
:1013f8005043880010c0b3006ce8b7006d68ef0078
:10140800010037005628ef00b1fe07000a00370038
:101418003000200090428800fdfe070006003700db
:101428004000200090428800f9fe070002003700c3
:1014380020002000a04288000080fa00000006007a
:101448000000fa00a0428000e10f500009003200bd
:10145800e10f500003003900e20f50001c00320079
:101468001f0037002000200090428800e8fe070097
:101478001d003700b04280000000e0000300320089
:10148800e10f5000080032000e00370000fa20007b
:101498004043880000ee2200504388006c68ef004b
:1014a8006d68ef000800370000f421004043880011
:1014b80000e82300504388006c68ef006d68ef0077
:1014c800010037005628ef0081fe070006003700ac
:1014d8004000200090428800cdfe0700020037003f
:1014e80020002000a04288000080fa0000000600ca
:1014f8000000fa00c1188000007d2000808f500095
:1015080003003e0030002000f04288000f00370042
:10151800d1188000f0f92000808f500002003600ba
:101528005e28ef0009003700e1188000f0f920007c
:10153800808f50000300360010002000f042880021
:101548000200370020002000f04288000080fa00e6
:10155800000006000000fa0080022000b00c88009d
:10156800e0012000b5fe070000052000b00c88004f
:081578000080fa0000000600eb
:020000040000fa
:10158000500800002600000000000000760800005f
:101590000200000002000000010000000000000046
:020000040000fa
:0200000401f009
:04000c00ffff0000f2
:020000040000fa
:0200000401f009
:04001000fbff0000f2
:00000001FF
